{
  "contractName": "MarketPlace",
  "abi": [
    {
      "constant": false,
      "inputs": [],
      "name": "unpause",
      "outputs": [],
      "payable": false,
      "stateMutability": "nonpayable",
      "type": "function"
    },
    {
      "constant": true,
      "inputs": [],
      "name": "paused",
      "outputs": [
        {
          "name": "",
          "type": "bool"
        }
      ],
      "payable": false,
      "stateMutability": "view",
      "type": "function"
    },
    {
      "constant": false,
      "inputs": [],
      "name": "renounceOwnership",
      "outputs": [],
      "payable": false,
      "stateMutability": "nonpayable",
      "type": "function"
    },
    {
      "constant": true,
      "inputs": [],
      "name": "ecoBucks",
      "outputs": [
        {
          "name": "",
          "type": "address"
        }
      ],
      "payable": false,
      "stateMutability": "view",
      "type": "function"
    },
    {
      "constant": true,
      "inputs": [],
      "name": "ERC721_INTERFACE",
      "outputs": [
        {
          "name": "",
          "type": "bytes4"
        }
      ],
      "payable": false,
      "stateMutability": "view",
      "type": "function"
    },
    {
      "constant": false,
      "inputs": [],
      "name": "pause",
      "outputs": [],
      "payable": false,
      "stateMutability": "nonpayable",
      "type": "function"
    },
    {
      "constant": true,
      "inputs": [],
      "name": "owner",
      "outputs": [
        {
          "name": "",
          "type": "address"
        }
      ],
      "payable": false,
      "stateMutability": "view",
      "type": "function"
    },
    {
      "constant": true,
      "inputs": [],
      "name": "INTERFACEID_VALIDATEFINGERPRINT",
      "outputs": [
        {
          "name": "",
          "type": "bytes4"
        }
      ],
      "payable": false,
      "stateMutability": "view",
      "type": "function"
    },
    {
      "constant": true,
      "inputs": [],
      "name": "projectFee",
      "outputs": [
        {
          "name": "",
          "type": "uint256"
        }
      ],
      "payable": false,
      "stateMutability": "view",
      "type": "function"
    },
    {
      "constant": true,
      "inputs": [
        {
          "name": "",
          "type": "address"
        },
        {
          "name": "",
          "type": "uint256"
        }
      ],
      "name": "orderByAssetId",
      "outputs": [
        {
          "name": "id",
          "type": "bytes32"
        },
        {
          "name": "subTokenAddress",
          "type": "address"
        },
        {
          "name": "price",
          "type": "uint256"
        },
        {
          "name": "seller",
          "type": "address"
        }
      ],
      "payable": false,
      "stateMutability": "view",
      "type": "function"
    },
    {
      "constant": true,
      "inputs": [],
      "name": "charityFee",
      "outputs": [
        {
          "name": "",
          "type": "uint256"
        }
      ],
      "payable": false,
      "stateMutability": "view",
      "type": "function"
    },
    {
      "constant": false,
      "inputs": [
        {
          "name": "_newOwner",
          "type": "address"
        }
      ],
      "name": "transferOwnership",
      "outputs": [],
      "payable": false,
      "stateMutability": "nonpayable",
      "type": "function"
    },
    {
      "inputs": [
        {
          "name": "_ecoBucksAddress",
          "type": "address"
        }
      ],
      "payable": false,
      "stateMutability": "nonpayable",
      "type": "constructor"
    },
    {
      "anonymous": false,
      "inputs": [
        {
          "indexed": false,
          "name": "id",
          "type": "bytes32"
        },
        {
          "indexed": true,
          "name": "assetId",
          "type": "uint256"
        },
        {
          "indexed": true,
          "name": "seller",
          "type": "address"
        },
        {
          "indexed": false,
          "name": "subTokenAddress",
          "type": "address"
        },
        {
          "indexed": false,
          "name": "totalPrice",
          "type": "uint256"
        },
        {
          "indexed": true,
          "name": "buyer",
          "type": "address"
        }
      ],
      "name": "OrderSuccessful",
      "type": "event"
    },
    {
      "anonymous": false,
      "inputs": [
        {
          "indexed": false,
          "name": "id",
          "type": "bytes32"
        },
        {
          "indexed": true,
          "name": "assetId",
          "type": "uint256"
        },
        {
          "indexed": true,
          "name": "seller",
          "type": "address"
        },
        {
          "indexed": false,
          "name": "subTokenAddress",
          "type": "address"
        }
      ],
      "name": "OrderCancelled",
      "type": "event"
    },
    {
      "anonymous": false,
      "inputs": [
        {
          "indexed": false,
          "name": "owner",
          "type": "address"
        },
        {
          "indexed": false,
          "name": "amount",
          "type": "uint256"
        }
      ],
      "name": "EcoTransfer",
      "type": "event"
    },
    {
      "anonymous": false,
      "inputs": [],
      "name": "Pause",
      "type": "event"
    },
    {
      "anonymous": false,
      "inputs": [],
      "name": "Unpause",
      "type": "event"
    },
    {
      "anonymous": false,
      "inputs": [
        {
          "indexed": true,
          "name": "previousOwner",
          "type": "address"
        }
      ],
      "name": "OwnershipRenounced",
      "type": "event"
    },
    {
      "anonymous": false,
      "inputs": [
        {
          "indexed": true,
          "name": "previousOwner",
          "type": "address"
        },
        {
          "indexed": true,
          "name": "newOwner",
          "type": "address"
        }
      ],
      "name": "OwnershipTransferred",
      "type": "event"
    },
    {
      "constant": false,
      "inputs": [
        {
          "name": "subTokenAddress",
          "type": "address"
        },
        {
          "name": "allotmentId",
          "type": "uint256"
        },
        {
          "name": "ecoPrice",
          "type": "uint256"
        }
      ],
      "name": "createOrder",
      "outputs": [],
      "payable": false,
      "stateMutability": "nonpayable",
      "type": "function"
    },
    {
      "constant": false,
      "inputs": [
        {
          "name": "subTokenAddress",
          "type": "address"
        },
        {
          "name": "allotmentId",
          "type": "uint256"
        }
      ],
      "name": "cancelOrder",
      "outputs": [],
      "payable": false,
      "stateMutability": "nonpayable",
      "type": "function"
    },
    {
      "constant": false,
      "inputs": [
        {
          "name": "subTokenAddress",
          "type": "address"
        },
        {
          "name": "assetId",
          "type": "uint256"
        },
        {
          "name": "price",
          "type": "uint256"
        },
        {
          "name": "fingerprint",
          "type": "bytes"
        }
      ],
      "name": "executeOrder",
      "outputs": [
        {
          "name": "",
          "type": "bool"
        }
      ],
      "payable": false,
      "stateMutability": "nonpayable",
      "type": "function"
    }
  ],
  "bytecode": "0x608060405260008060146101000a81548160ff02191690831515021790555034801561002a57600080fd5b506040516126d73803806126d78339818101604052602081101561004d57600080fd5b8101908080519060200190929190505050336000806101000a81548173ffffffffffffffffffffffffffffffffffffffff021916908373ffffffffffffffffffffffffffffffffffffffff16021790555080600160006101000a81548173ffffffffffffffffffffffffffffffffffffffff021916908373ffffffffffffffffffffffffffffffffffffffff1602179055506000600a90506000600a90505050506125da806100fd6000396000f3fe608060405234801561001057600080fd5b50600436106100f55760003560e01c80638da5cb5b11610097578063e61f385111610066578063e61f38511461034a578063ecfca89914610419578063f2fde38b14610437578063fdc4b7871461047b576100f5565b80638da5cb5b1461022e5780639e7e173314610278578063acfee8ed146102d4578063d58f2f271461032c576100f5565b8063715018a6116100d3578063715018a6146101745780637aba78ff1461017e5780637ad4e58e146101c85780638456cb5914610224576100f5565b80633f4ba83a146100fa5780635c975abb146101045780636a20613714610126575b600080fd5b610102610540565b005b61010c6105fa565b604051808215151515815260200191505060405180910390f35b6101726004803603604081101561013c57600080fd5b81019080803573ffffffffffffffffffffffffffffffffffffffff1690602001909291908035906020019092919050505061060d565b005b61017c610a02565b005b610186610b02565b604051808273ffffffffffffffffffffffffffffffffffffffff1673ffffffffffffffffffffffffffffffffffffffff16815260200191505060405180910390f35b6101d0610b28565b60405180827bffffffffffffffffffffffffffffffffffffffffffffffffffffffff19167bffffffffffffffffffffffffffffffffffffffffffffffffffffffff1916815260200191505060405180910390f35b61022c610b33565b005b610236610bef565b604051808273ffffffffffffffffffffffffffffffffffffffff1673ffffffffffffffffffffffffffffffffffffffff16815260200191505060405180910390f35b610280610c14565b60405180827bffffffffffffffffffffffffffffffffffffffffffffffffffffffff19167bffffffffffffffffffffffffffffffffffffffffffffffffffffffff1916815260200191505060405180910390f35b61032a600480360360608110156102ea57600080fd5b81019080803573ffffffffffffffffffffffffffffffffffffffff1690602001909291908035906020019092919080359060200190929190505050610c4d565b005b6103346111f7565b6040518082815260200191505060405180910390f35b6103966004803603604081101561036057600080fd5b81019080803573ffffffffffffffffffffffffffffffffffffffff169060200190929190803590602001909291905050506111fd565b604051808581526020018473ffffffffffffffffffffffffffffffffffffffff1673ffffffffffffffffffffffffffffffffffffffff1681526020018381526020018273ffffffffffffffffffffffffffffffffffffffff1673ffffffffffffffffffffffffffffffffffffffff16815260200194505050505060405180910390f35b61042161127a565b6040518082815260200191505060405180910390f35b6104796004803603602081101561044d57600080fd5b81019080803573ffffffffffffffffffffffffffffffffffffffff169060200190929190505050611280565b005b6105266004803603608081101561049157600080fd5b81019080803573ffffffffffffffffffffffffffffffffffffffff1690602001909291908035906020019092919080359060200190929190803590602001906401000000008111156104e257600080fd5b8201836020820111156104f457600080fd5b8035906020019184600183028401116401000000008311171561051657600080fd5b90919293919293905050506112e5565b604051808215151515815260200191505060405180910390f35b6000809054906101000a900473ffffffffffffffffffffffffffffffffffffffff1673ffffffffffffffffffffffffffffffffffffffff163373ffffffffffffffffffffffffffffffffffffffff161461059957600080fd5b600060149054906101000a900460ff166105b257600080fd5b60008060146101000a81548160ff0219169083151502179055507f7805862f689e2f13df9f062ff482ad3ad112aca9e0847911ed832e158c525b3360405160405180910390a1565b600060149054906101000a900460ff1681565b610615612434565b600460008473ffffffffffffffffffffffffffffffffffffffff1673ffffffffffffffffffffffffffffffffffffffff1681526020019081526020016000206000838152602001908152602001600020604051806080016040529081600082015481526020016001820160009054906101000a900473ffffffffffffffffffffffffffffffffffffffff1673ffffffffffffffffffffffffffffffffffffffff1673ffffffffffffffffffffffffffffffffffffffff168152602001600282015481526020016003820160009054906101000a900473ffffffffffffffffffffffffffffffffffffffff1673ffffffffffffffffffffffffffffffffffffffff1673ffffffffffffffffffffffffffffffffffffffff168152505090506000801b816000015114156107af576040517f08c379a00000000000000000000000000000000000000000000000000000000081526004018080602001828103825260138152602001807f4173736574206e6f74207075626c69736865640000000000000000000000000081525060200191505060405180910390fd5b3373ffffffffffffffffffffffffffffffffffffffff16816060015173ffffffffffffffffffffffffffffffffffffffff16148061083957506000809054906101000a900473ffffffffffffffffffffffffffffffffffffffff1673ffffffffffffffffffffffffffffffffffffffff163373ffffffffffffffffffffffffffffffffffffffff16145b6108ab576040517f08c379a00000000000000000000000000000000000000000000000000000000081526004018080602001828103825260118152602001807f556e617574686f72697a6564207573657200000000000000000000000000000081525060200191505060405180910390fd5b600081600001519050600082606001519050600083602001519050600460008773ffffffffffffffffffffffffffffffffffffffff1673ffffffffffffffffffffffffffffffffffffffff16815260200190815260200160002060008681526020019081526020016000206000808201600090556001820160006101000a81549073ffffffffffffffffffffffffffffffffffffffff021916905560028201600090556003820160006101000a81549073ffffffffffffffffffffffffffffffffffffffff021916905550508173ffffffffffffffffffffffffffffffffffffffff16857f0325426328de5b91ae4ad8462ad4076de4bcaf4551e81556185cacde5a425c6b8584604051808381526020018273ffffffffffffffffffffffffffffffffffffffff1673ffffffffffffffffffffffffffffffffffffffff1681526020019250505060405180910390a3505050505050565b6000809054906101000a900473ffffffffffffffffffffffffffffffffffffffff1673ffffffffffffffffffffffffffffffffffffffff163373ffffffffffffffffffffffffffffffffffffffff1614610a5b57600080fd5b6000809054906101000a900473ffffffffffffffffffffffffffffffffffffffff1673ffffffffffffffffffffffffffffffffffffffff167ff8df31144d9c2f0f6b59d69b8b98abd5459d07f2742c4df920b25aae33c6482060405160405180910390a260008060006101000a81548173ffffffffffffffffffffffffffffffffffffffff021916908373ffffffffffffffffffffffffffffffffffffffff160217905550565b600160009054906101000a900473ffffffffffffffffffffffffffffffffffffffff1681565b6380ac58cd60e01b81565b6000809054906101000a900473ffffffffffffffffffffffffffffffffffffffff1673ffffffffffffffffffffffffffffffffffffffff163373ffffffffffffffffffffffffffffffffffffffff1614610b8c57600080fd5b600060149054906101000a900460ff1615610ba657600080fd5b6001600060146101000a81548160ff0219169083151502179055507f6985a02210a168e66602d3235cb6db0e70f92b3ba4d376a33c0f3d9434bff62560405160405180910390a1565b6000809054906101000a900473ffffffffffffffffffffffffffffffffffffffff1681565b60405180807f76657269667946696e6765727072696e742875696e743235362c6279746573298152506020019050604051809103902081565b610c5683611d5a565b600083905060008173ffffffffffffffffffffffffffffffffffffffff16636352211e856040518263ffffffff1660e01b81526004018082815260200191505060206040518083038186803b158015610cae57600080fd5b505afa158015610cc2573d6000803e3d6000fd5b505050506040513d6020811015610cd857600080fd5b810190808051906020019092919050505090508073ffffffffffffffffffffffffffffffffffffffff163373ffffffffffffffffffffffffffffffffffffffff1614610d8c576040517f08c379a000000000000000000000000000000000000000000000000000000000815260040180806020018281038252601e8152602001807f4f6e6c7920746865206f776e65722063616e206d616b65206f7264657273000081525060200191505060405180910390fd5b60008311610e02576040517f08c379a000000000000000000000000000000000000000000000000000000000815260040180806020018281038252601e8152602001807f50726963652073686f756c642062652067726561746572207468616e2030000081525060200191505060405180910390fd5b3073ffffffffffffffffffffffffffffffffffffffff168273ffffffffffffffffffffffffffffffffffffffff1663081812fc866040518263ffffffff1660e01b81526004018082815260200191505060206040518083038186803b158015610e6a57600080fd5b505afa158015610e7e573d6000803e3d6000fd5b505050506040513d6020811015610e9457600080fd5b810190808051906020019092919050505073ffffffffffffffffffffffffffffffffffffffff161480610faf57508173ffffffffffffffffffffffffffffffffffffffff1663e985e9c582306040518363ffffffff1660e01b8152600401808373ffffffffffffffffffffffffffffffffffffffff1673ffffffffffffffffffffffffffffffffffffffff1681526020018273ffffffffffffffffffffffffffffffffffffffff1673ffffffffffffffffffffffffffffffffffffffff1681526020019250505060206040518083038186803b158015610f7357600080fd5b505afa158015610f87573d6000803e3d6000fd5b505050506040513d6020811015610f9d57600080fd5b81019080805190602001909291905050505b611004576040517f08c379a000000000000000000000000000000000000000000000000000000000815260040180806020018281038252603281526020018061248c6032913960400191505060405180910390fd5b60004282868887604051602001808681526020018573ffffffffffffffffffffffffffffffffffffffff1673ffffffffffffffffffffffffffffffffffffffff1660601b81526014018481526020018373ffffffffffffffffffffffffffffffffffffffff1673ffffffffffffffffffffffffffffffffffffffff1660601b81526014018281526020019550505050505060405160208183030381529060405280519060200120905060405180608001604052808281526020018773ffffffffffffffffffffffffffffffffffffffff1681526020018581526020018373ffffffffffffffffffffffffffffffffffffffff16815250600460008873ffffffffffffffffffffffffffffffffffffffff1673ffffffffffffffffffffffffffffffffffffffff16815260200190815260200160002060008781526020019081526020016000206000820151816000015560208201518160010160006101000a81548173ffffffffffffffffffffffffffffffffffffffff021916908373ffffffffffffffffffffffffffffffffffffffff1602179055506040820151816002015560608201518160030160006101000a81548173ffffffffffffffffffffffffffffffffffffffff021916908373ffffffffffffffffffffffffffffffffffffffff160217905550905050505050505050565b60025481565b6004602052816000526040600020602052806000526040600020600091509150508060000154908060010160009054906101000a900473ffffffffffffffffffffffffffffffffffffffff16908060020154908060030160009054906101000a900473ffffffffffffffffffffffffffffffffffffffff16905084565b60035481565b6000809054906101000a900473ffffffffffffffffffffffffffffffffffffffff1673ffffffffffffffffffffffffffffffffffffffff163373ffffffffffffffffffffffffffffffffffffffff16146112d957600080fd5b6112e281611f04565b50565b60006112f086611d5a565b60008690508073ffffffffffffffffffffffffffffffffffffffff166301ffc9a760405180807f76657269667946696e6765727072696e742875696e743235362c627974657329815250602001905060405180910390206040518263ffffffff1660e01b815260040180827bffffffffffffffffffffffffffffffffffffffffffffffffffffffff19167bffffffffffffffffffffffffffffffffffffffffffffffffffffffff1916815260200191505060206040518083038186803b1580156113b957600080fd5b505afa1580156113cd573d6000803e3d6000fd5b505050506040513d60208110156113e357600080fd5b81019080805190602001909291905050501561150f578073ffffffffffffffffffffffffffffffffffffffff16638f9f4b638786866040518463ffffffff1660e01b815260040180848152602001806020018281038252848482818152602001925080828437600081840152601f19601f82011690508083019250505094505050505060206040518083038186803b15801561147e57600080fd5b505afa158015611492573d6000803e3d6000fd5b505050506040513d60208110156114a857600080fd5b810190808051906020019092919050505061150e576040517f08c379a00000000000000000000000000000000000000000000000000000000081526004018080602001828103825260228152602001806124be6022913960400191505060405180910390fd5b5b611517612434565b600460008973ffffffffffffffffffffffffffffffffffffffff1673ffffffffffffffffffffffffffffffffffffffff1681526020019081526020016000206000888152602001908152602001600020604051806080016040529081600082015481526020016001820160009054906101000a900473ffffffffffffffffffffffffffffffffffffffff1673ffffffffffffffffffffffffffffffffffffffff1673ffffffffffffffffffffffffffffffffffffffff168152602001600282015481526020016003820160009054906101000a900473ffffffffffffffffffffffffffffffffffffffff1673ffffffffffffffffffffffffffffffffffffffff1673ffffffffffffffffffffffffffffffffffffffff168152505090506000801b816000015114156116b1576040517f08c379a00000000000000000000000000000000000000000000000000000000081526004018080602001828103825260138152602001807f4173736574206e6f74207075626c69736865640000000000000000000000000081525060200191505060405180910390fd5b600081606001519050600073ffffffffffffffffffffffffffffffffffffffff168173ffffffffffffffffffffffffffffffffffffffff16141561175d576040517f08c379a000000000000000000000000000000000000000000000000000000000815260040180806020018281038252600f8152602001807f496e76616c69642061646472657373000000000000000000000000000000000081525060200191505060405180910390fd5b3373ffffffffffffffffffffffffffffffffffffffff168173ffffffffffffffffffffffffffffffffffffffff1614156117ff576040517f08c379a00000000000000000000000000000000000000000000000000000000081526004018080602001828103825260118152602001807f556e617574686f72697a6564207573657200000000000000000000000000000081525060200191505060405180910390fd5b86826040015114611878576040517f08c379a00000000000000000000000000000000000000000000000000000000081526004018080602001828103825260188152602001807f546865207072696365206973206e6f7420636f7272656374000000000000000081525060200191505060405180910390fd5b8273ffffffffffffffffffffffffffffffffffffffff16636352211e896040518263ffffffff1660e01b81526004018082815260200191505060206040518083038186803b1580156118c957600080fd5b505afa1580156118dd573d6000803e3d6000fd5b505050506040513d60208110156118f357600080fd5b810190808051906020019092919050505073ffffffffffffffffffffffffffffffffffffffff168173ffffffffffffffffffffffffffffffffffffffff16146119a4576040517f08c379a00000000000000000000000000000000000000000000000000000000081526004018080602001828103825260188152602001807f5468652073656c6c6572206e6f7420746865206f776e6572000000000000000081525060200191505060405180910390fd5b600082600001519050600460008b73ffffffffffffffffffffffffffffffffffffffff1673ffffffffffffffffffffffffffffffffffffffff16815260200190815260200160002060008a81526020019081526020016000206000808201600090556001820160006101000a81549073ffffffffffffffffffffffffffffffffffffffff021916905560028201600090556003820160006101000a81549073ffffffffffffffffffffffffffffffffffffffff0219169055505060006003541115611acc57611a76338b600354611ffc565b611acb576040517f08c379a00000000000000000000000000000000000000000000000000000000081526004018080602001828103825260318152602001806124e06031913960400191505060405180910390fd5b5b60006002541115611b5c57611b0633600160009054906101000a900473ffffffffffffffffffffffffffffffffffffffff16600254611ffc565b611b5b576040517f08c379a000000000000000000000000000000000000000000000000000000000815260040180806020018281038252603881526020018061256e6038913960400191505060405180910390fd5b5b611b7f3383611b7a600354600254018c61227b90919063ffffffff16565b611ffc565b611bd4576040517f08c379a00000000000000000000000000000000000000000000000000000000081526004018080602001828103825260308152602001806125116030913960400191505060405180910390fd5b8373ffffffffffffffffffffffffffffffffffffffff166342842e0e83338c6040518463ffffffff1660e01b8152600401808473ffffffffffffffffffffffffffffffffffffffff1673ffffffffffffffffffffffffffffffffffffffff1681526020018373ffffffffffffffffffffffffffffffffffffffff1673ffffffffffffffffffffffffffffffffffffffff1681526020018281526020019350505050600060405180830381600087803b158015611c8f57600080fd5b505af1158015611ca3573d6000803e3d6000fd5b505050503373ffffffffffffffffffffffffffffffffffffffff168273ffffffffffffffffffffffffffffffffffffffff168a7f695ec315e8a642a74d450a4505eeea53df699b47a7378c7d752e97d5b16eb9bb848e8d604051808481526020018373ffffffffffffffffffffffffffffffffffffffff1673ffffffffffffffffffffffffffffffffffffffff168152602001828152602001935050505060405180910390a4600194505050505095945050505050565b611d6381612304565b611dd5576040517f08c379a000000000000000000000000000000000000000000000000000000000815260040180806020018281038252601a8152602001807f41646472657373206d757374206265206120636f6e747261637400000000000081525060200191505060405180910390fd5b60008190508073ffffffffffffffffffffffffffffffffffffffff166301ffc9a76380ac58cd60e01b6040518263ffffffff1660e01b815260040180827bffffffffffffffffffffffffffffffffffffffffffffffffffffffff19167bffffffffffffffffffffffffffffffffffffffffffffffffffffffff1916815260200191505060206040518083038186803b158015611e7057600080fd5b505afa158015611e84573d6000803e3d6000fd5b505050506040513d6020811015611e9a57600080fd5b8101908080519060200190929190505050611f00576040517f08c379a000000000000000000000000000000000000000000000000000000000815260040180806020018281038252602d815260200180612541602d913960400191505060405180910390fd5b5050565b600073ffffffffffffffffffffffffffffffffffffffff168173ffffffffffffffffffffffffffffffffffffffff161415611f3e57600080fd5b8073ffffffffffffffffffffffffffffffffffffffff166000809054906101000a900473ffffffffffffffffffffffffffffffffffffffff1673ffffffffffffffffffffffffffffffffffffffff167f8be0079c531659141344cd1fd0a4f28419497f9722a3daafe3b4186f6b6457e060405160405180910390a3806000806101000a81548173ffffffffffffffffffffffffffffffffffffffff021916908373ffffffffffffffffffffffffffffffffffffffff16021790555050565b6000816120088561231d565b1161207b576040517f08c379a000000000000000000000000000000000000000000000000000000000815260040180806020018281038252600f8152602001807f4e6f7420656e6f7567682045434f42000000000000000000000000000000000081525060200191505060405180910390fd5b600160009054906101000a900473ffffffffffffffffffffffffffffffffffffffff1673ffffffffffffffffffffffffffffffffffffffff166323b872dd8585856040518463ffffffff1660e01b8152600401808473ffffffffffffffffffffffffffffffffffffffff1673ffffffffffffffffffffffffffffffffffffffff1681526020018373ffffffffffffffffffffffffffffffffffffffff1673ffffffffffffffffffffffffffffffffffffffff1681526020018281526020019350505050602060405180830381600087803b15801561215857600080fd5b505af115801561216c573d6000803e3d6000fd5b505050506040513d602081101561218257600080fd5b8101908080519060200190929190505050612205576040517f08c379a000000000000000000000000000000000000000000000000000000000815260040180806020018281038252601b8152602001807f5472616e73666572206f662045636f4275636b73206661696c6564000000000081525060200191505060405180910390fd5b7f99b66143a3ffe76dc894b2fb44bf93c988746a74beba53e99a7886097eb2984b8483604051808373ffffffffffffffffffffffffffffffffffffffff1673ffffffffffffffffffffffffffffffffffffffff1681526020018281526020019250505060405180910390a1600190509392505050565b6000828211156122f3576040517f08c379a000000000000000000000000000000000000000000000000000000000815260040180806020018281038252601e8152602001807f536166654d6174683a207375627472616374696f6e206f766572666c6f77000081525060200191505060405180910390fd5b600082840390508091505092915050565b600080823b905060008163ffffffff1611915050919050565b6000600160009054906101000a900473ffffffffffffffffffffffffffffffffffffffff1673ffffffffffffffffffffffffffffffffffffffff1663dd62ed3e83306040518363ffffffff1660e01b8152600401808373ffffffffffffffffffffffffffffffffffffffff1673ffffffffffffffffffffffffffffffffffffffff1681526020018273ffffffffffffffffffffffffffffffffffffffff1673ffffffffffffffffffffffffffffffffffffffff1681526020019250505060206040518083038186803b1580156123f257600080fd5b505afa158015612406573d6000803e3d6000fd5b505050506040513d602081101561241c57600080fd5b81019080805190602001909291905050509050919050565b604051806080016040528060008019168152602001600073ffffffffffffffffffffffffffffffffffffffff16815260200160008152602001600073ffffffffffffffffffffffffffffffffffffffff168152509056fe54686520636f6e7472616374206973206e6f7420617574686f72697a656420746f206d616e616765207468652061737365745468652061737365742066696e6765727072696e74206973206e6f742076616c69645472616e73666572696e672074686520636861726974792066656520746f207468652063686172697479206661696c65645472616e73666572696e67207468652073616c6520616d6f756e7420746f207468652073656c6c6572206661696c6564436f6e74726163742068617320616e20696e76616c69642045524337323120696d706c656d656e746174696f6e5472616e73666572696e67207468652070726f6a6563742066656520746f207468652065636f4275636b73206f776e6572206661696c6564a265627a7a72305820e5116e14990b2f26098a248335da2377c158468e973049ebd70ee6ccdce00f2864736f6c634300050a0032",
  "source": "pragma solidity 0.5.10;\n\n// Import OpenZeppelin's SafeMath Implementation\nimport \"openzeppelin-solidity/contracts/math/SafeMath.sol\";\nimport \"./utils/Ownable.sol\";\nimport \"./utils/Pausable.sol\";\nimport \"./utils/Erc20.sol\";\nimport \"./utils/Erc721.sol\";\nimport \"./utils/Erc721Verifiable.sol\";\n\n\ncontract MarketPlace is Ownable, Pausable {\n    using SafeMath for uint256;\n    ERC20 public ecoBucks;\n    uint256 public projectFee;\n    uint256 public charityFee;\n\n    bytes4 public constant ERC721_INTERFACE = bytes4(0x80ac58cd);\n\n    bytes4 public constant INTERFACEID_VALIDATEFINGERPRINT = bytes4(\n        keccak256(\"verifyFingerprint(uint256,bytes)\")\n    );\n\n    constructor(address _ecoBucksAddress) public {\n        ecoBucks = ERC20(_ecoBucksAddress);\n        uint256 projectFee = 10; // Base fee of every executed order, in ecoBucks\n        uint256 charityFee = 10; // Base fee of every executed order, in ecoBucks\n    }\n\n    // EVENTS\n    // event OrderCreated(\n    //     bytes32 id,\n    //     uint256 indexed allotmentId,\n    //     address indexed allotmentOwner,\n    //     address subTokenAddress,\n    //     uint256 ecoPrice\n    // );\n\n    event OrderSuccessful(\n        bytes32 id,\n        uint256 indexed assetId,\n        address indexed seller,\n        address subTokenAddress,\n        uint256 totalPrice,\n        address indexed buyer\n    );\n\n    event OrderCancelled(\n        bytes32 id,\n        uint256 indexed assetId,\n        address indexed seller,\n        address subTokenAddress\n    );\n\n    event EcoTransfer(\n        address owner,\n        uint256 amount\n    );\n\n    struct Order {\n        // Order ID\n        bytes32 id;\n        // Charity contract address\n        address subTokenAddress;\n        // Price (in ecob) for the published item\n        uint256 price;\n        // Owner of the allotment\n        address seller;\n    }\n\n    mapping (address => mapping(uint256 => Order)) public orderByAssetId;\n\n    /** @dev Create order\n    */\n    function createOrder(\n        address subTokenAddress,\n        uint256 allotmentId,\n        uint256 ecoPrice\n    ) external {\n        _requireERC721(subTokenAddress);\n\n        ERC721 subToken = ERC721(subTokenAddress);\n        address allotmentOwner = subToken.ownerOf(allotmentId);\n\n        require(msg.sender == allotmentOwner, \"Only the owner can make orders\");\n        require(ecoPrice > 0, \"Price should be greater than 0\");\n        // require(\n        //     _availableECO(msg.sender) > publicationFeeInWei,\n        //     \"Owner does not have enough EcoBucks to pay publication fee\"\n        // )\n        require(\n            subToken.getApproved(allotmentId) == address(this) ||\n            subToken.isApprovedForAll(allotmentOwner, address(this)),\n            \"The contract is not authorized to manage the asset\"\n        );\n\n        bytes32 orderId = keccak256(\n            abi.encodePacked(\n                block.timestamp,\n                allotmentOwner,\n                allotmentId,\n                subTokenAddress,\n                ecoPrice\n            )\n        );\n\n        orderByAssetId[subTokenAddress][allotmentId] = Order({\n            id: orderId,\n            subTokenAddress: subTokenAddress,\n            price: ecoPrice,\n            seller: allotmentOwner\n        });\n\n        // emit OrderCreated(\n        //     orderId,\n        //     allotmentId,\n        //     allotmentOwner,\n        //     subTokenAddress,\n        //     ecoPrice\n        // );\n    }\n\n    /** @dev Cancel existing order\n    */\n    function cancelOrder(\n        address subTokenAddress,\n        uint256 allotmentId\n    ) external {\n        Order memory order = orderByAssetId[subTokenAddress][allotmentId];\n\n        require(order.id != 0, \"Asset not published\");\n        require(\n            order.seller == msg.sender ||\n            msg.sender == owner,\n            \"Unauthorized user\"\n        );\n\n        bytes32 orderId = order.id;\n        address orderSeller = order.seller;\n        address orderTokenAddress = order.subTokenAddress;\n        delete orderByAssetId[subTokenAddress][allotmentId];\n\n        emit OrderCancelled(\n            orderId,\n            allotmentId,\n            orderSeller,\n            orderTokenAddress\n        );\n\n        //return order;\n    }\n\n    /** @dev Execute sale of order\n    */\n    function executeOrder(\n        address subTokenAddress,\n        uint256 assetId,\n        uint256 price,\n        bytes calldata fingerprint\n    ) external returns (bool) {\n        _requireERC721(subTokenAddress);\n\n        ERC721Verifiable nftRegistry = ERC721Verifiable(subTokenAddress);\n\n        if (nftRegistry.supportsInterface(INTERFACEID_VALIDATEFINGERPRINT)) {\n            require(\n                nftRegistry.verifyFingerprint(assetId, fingerprint),\n                \"The asset fingerprint is not valid\"\n            );\n        }\n        Order memory order = orderByAssetId[subTokenAddress][assetId];\n        require(order.id != 0, \"Asset not published\");\n\n        address seller = order.seller;\n        require(seller != address(0), \"Invalid address\");\n        require(seller != msg.sender, \"Unauthorized user\");\n        require(order.price == price, \"The price is not correct\");\n        require(\n            seller == nftRegistry.ownerOf(assetId),\n            \"The seller not the owner\"\n        );\n\n        bytes32 orderId = order.id;\n        delete orderByAssetId[subTokenAddress][assetId];\n\n        // Transfer charity fee if exists\n        if (charityFee > 0) {\n            require(\n                _takeEco(msg.sender, subTokenAddress, charityFee),\n                \"Transfering the charity fee to the charity failed\"\n            );\n        }\n\n        // Transfer project fee if exists\n        if (projectFee > 0) {\n            require(\n                _takeEco(msg.sender, address(ecoBucks), projectFee),\n                \"Transfering the project fee to the ecoBucks owner failed\"\n            );\n        }\n\n        // Transfer sale amount to seller\n        require(\n            _takeEco(msg.sender, seller, price.sub(projectFee + charityFee)),\n            \"Transfering the sale amount to the seller failed\"\n        );\n\n        // Transfer asset owner\n        nftRegistry.safeTransferFrom(\n            seller,\n            msg.sender,\n            assetId\n        );\n\n        emit OrderSuccessful(\n            orderId,\n            assetId,\n            seller,\n            subTokenAddress,\n            price,\n            msg.sender\n        );\n\n        return true;\n    }\n\n    function _requireERC721(address subTokenAddress) internal view {\n        require(isContract(subTokenAddress), \"Address must be a contract\");\n\n        ERC721 nftRegistry = ERC721(subTokenAddress);\n        require(\n            nftRegistry.supportsInterface(ERC721_INTERFACE),\n            \"Contract has an invalid ERC721 implementation\"\n        );\n    }\n\n    /** @dev Function to verifie user has enough ecobucks to spend\n    */\n    function _availableECO(address user) internal view returns (uint256) {\n        return ecoBucks.allowance(user, address(this));\n    }\n\n    /** @dev Function to take ecobucks from user and transfer to contract\n     */\n    function _takeEco(address _from, address _to, uint256 _amount) internal returns (bool) {\n        require(_availableECO(_from) > _amount, \"Not enough ECOB\");\n        require(ecoBucks.transferFrom(_from, _to, _amount), \"Transfer of EcoBucks failed\");\n        emit EcoTransfer(_from, _amount);\n        return true;\n    }\n\n    /** @dev Function determine if input is contract\n      * @return bool if input is a contract\n      */\n    function isContract(address _addr) internal view returns (bool) {\n        uint32 size;\n        assembly {\n            size := extcodesize(_addr)\n        }\n        return (size > 0);\n    }\n}\n",
  "sourcePath": "/Users/loberwager/Documents/ethprj/EcoBucks/contracts/MarketPlace.sol",
  "compiler": {
    "name": "solc",
    "version": "0.5.10+commit.5a6ea5b1.Emscripten.clang"
  },
  "schemaVersion": "3.0.9",
  "updatedAt": "2019-07-09T11:08:23.809Z",
  "devdoc": {
    "methods": {
      "cancelOrder(address,uint256)": {
        "details": "Cancel existing order"
      },
      "createOrder(address,uint256,uint256)": {
        "details": "Create order"
      },
      "executeOrder(address,uint256,uint256,bytes)": {
        "details": "Execute sale of order"
      },
      "pause()": {
        "details": "called by the owner to pause, triggers stopped state"
      },
      "renounceOwnership()": {
        "details": "Allows the current owner to relinquish control of the contract."
      },
      "transferOwnership(address)": {
        "details": "Allows the current owner to transfer control of the contract to a newOwner.",
        "params": {
          "_newOwner": "The address to transfer ownership to."
        }
      },
      "unpause()": {
        "details": "called by the owner to unpause, returns to normal state"
      }
    }
  },
  "userdoc": {
    "methods": {}
  }
}