{
  "contractName": "PanamaJungle",
  "abi": [
    {
      "constant": true,
      "inputs": [
        {
          "name": "interfaceId",
          "type": "bytes4"
        }
      ],
      "name": "supportsInterface",
      "outputs": [
        {
          "name": "",
          "type": "bool"
        }
      ],
      "payable": false,
      "stateMutability": "view",
      "type": "function"
    },
    {
      "constant": true,
      "inputs": [],
      "name": "name",
      "outputs": [
        {
          "name": "",
          "type": "string"
        }
      ],
      "payable": false,
      "stateMutability": "view",
      "type": "function"
    },
    {
      "constant": true,
      "inputs": [
        {
          "name": "tokenId",
          "type": "uint256"
        }
      ],
      "name": "getApproved",
      "outputs": [
        {
          "name": "",
          "type": "address"
        }
      ],
      "payable": false,
      "stateMutability": "view",
      "type": "function"
    },
    {
      "constant": false,
      "inputs": [
        {
          "name": "to",
          "type": "address"
        },
        {
          "name": "tokenId",
          "type": "uint256"
        }
      ],
      "name": "approve",
      "outputs": [],
      "payable": false,
      "stateMutability": "nonpayable",
      "type": "function"
    },
    {
      "constant": false,
      "inputs": [
        {
          "name": "from",
          "type": "address"
        },
        {
          "name": "to",
          "type": "address"
        },
        {
          "name": "tokenId",
          "type": "uint256"
        }
      ],
      "name": "transferFrom",
      "outputs": [],
      "payable": false,
      "stateMutability": "nonpayable",
      "type": "function"
    },
    {
      "constant": false,
      "inputs": [],
      "name": "unpause",
      "outputs": [],
      "payable": false,
      "stateMutability": "nonpayable",
      "type": "function"
    },
    {
      "constant": false,
      "inputs": [
        {
          "name": "from",
          "type": "address"
        },
        {
          "name": "to",
          "type": "address"
        },
        {
          "name": "tokenId",
          "type": "uint256"
        }
      ],
      "name": "safeTransferFrom",
      "outputs": [],
      "payable": false,
      "stateMutability": "nonpayable",
      "type": "function"
    },
    {
      "constant": true,
      "inputs": [],
      "name": "nftAddress",
      "outputs": [
        {
          "name": "",
          "type": "address"
        }
      ],
      "payable": false,
      "stateMutability": "view",
      "type": "function"
    },
    {
      "constant": true,
      "inputs": [],
      "name": "paused",
      "outputs": [
        {
          "name": "",
          "type": "bool"
        }
      ],
      "payable": false,
      "stateMutability": "view",
      "type": "function"
    },
    {
      "constant": true,
      "inputs": [
        {
          "name": "tokenId",
          "type": "uint256"
        }
      ],
      "name": "ownerOf",
      "outputs": [
        {
          "name": "",
          "type": "address"
        }
      ],
      "payable": false,
      "stateMutability": "view",
      "type": "function"
    },
    {
      "constant": true,
      "inputs": [],
      "name": "ecoBucksAddress",
      "outputs": [
        {
          "name": "",
          "type": "address"
        }
      ],
      "payable": false,
      "stateMutability": "view",
      "type": "function"
    },
    {
      "constant": true,
      "inputs": [
        {
          "name": "owner",
          "type": "address"
        }
      ],
      "name": "balanceOf",
      "outputs": [
        {
          "name": "",
          "type": "uint256"
        }
      ],
      "payable": false,
      "stateMutability": "view",
      "type": "function"
    },
    {
      "constant": false,
      "inputs": [],
      "name": "renounceOwnership",
      "outputs": [],
      "payable": false,
      "stateMutability": "nonpayable",
      "type": "function"
    },
    {
      "constant": false,
      "inputs": [],
      "name": "pause",
      "outputs": [],
      "payable": false,
      "stateMutability": "nonpayable",
      "type": "function"
    },
    {
      "constant": true,
      "inputs": [],
      "name": "owner",
      "outputs": [
        {
          "name": "",
          "type": "address"
        }
      ],
      "payable": false,
      "stateMutability": "view",
      "type": "function"
    },
    {
      "constant": true,
      "inputs": [],
      "name": "symbol",
      "outputs": [
        {
          "name": "",
          "type": "string"
        }
      ],
      "payable": false,
      "stateMutability": "view",
      "type": "function"
    },
    {
      "constant": true,
      "inputs": [],
      "name": "currentPrice",
      "outputs": [
        {
          "name": "",
          "type": "uint256"
        }
      ],
      "payable": false,
      "stateMutability": "view",
      "type": "function"
    },
    {
      "constant": false,
      "inputs": [
        {
          "name": "to",
          "type": "address"
        },
        {
          "name": "approved",
          "type": "bool"
        }
      ],
      "name": "setApprovalForAll",
      "outputs": [],
      "payable": false,
      "stateMutability": "nonpayable",
      "type": "function"
    },
    {
      "constant": false,
      "inputs": [
        {
          "name": "from",
          "type": "address"
        },
        {
          "name": "to",
          "type": "address"
        },
        {
          "name": "tokenId",
          "type": "uint256"
        },
        {
          "name": "_data",
          "type": "bytes"
        }
      ],
      "name": "safeTransferFrom",
      "outputs": [],
      "payable": false,
      "stateMutability": "nonpayable",
      "type": "function"
    },
    {
      "constant": true,
      "inputs": [
        {
          "name": "owner",
          "type": "address"
        },
        {
          "name": "operator",
          "type": "address"
        }
      ],
      "name": "isApprovedForAll",
      "outputs": [
        {
          "name": "",
          "type": "bool"
        }
      ],
      "payable": false,
      "stateMutability": "view",
      "type": "function"
    },
    {
      "constant": true,
      "inputs": [
        {
          "name": "",
          "type": "uint256"
        }
      ],
      "name": "microAddons",
      "outputs": [
        {
          "name": "price",
          "type": "uint16"
        },
        {
          "name": "purchasable",
          "type": "bool"
        }
      ],
      "payable": false,
      "stateMutability": "view",
      "type": "function"
    },
    {
      "constant": false,
      "inputs": [
        {
          "name": "_newOwner",
          "type": "address"
        }
      ],
      "name": "transferOwnership",
      "outputs": [],
      "payable": false,
      "stateMutability": "nonpayable",
      "type": "function"
    },
    {
      "inputs": [
        {
          "name": "_ecoBucksAddress",
          "type": "address"
        }
      ],
      "payable": false,
      "stateMutability": "nonpayable",
      "type": "constructor"
    },
    {
      "payable": true,
      "stateMutability": "payable",
      "type": "fallback"
    },
    {
      "anonymous": false,
      "inputs": [
        {
          "indexed": false,
          "name": "owner",
          "type": "address"
        },
        {
          "indexed": false,
          "name": "allotmentId",
          "type": "uint256"
        },
        {
          "indexed": false,
          "name": "geoMap",
          "type": "uint256[2][]"
        },
        {
          "indexed": false,
          "name": "addons",
          "type": "uint16[]"
        }
      ],
      "name": "Birth",
      "type": "event"
    },
    {
      "anonymous": false,
      "inputs": [
        {
          "indexed": false,
          "name": "owner",
          "type": "address"
        },
        {
          "indexed": false,
          "name": "allotmentId",
          "type": "uint256"
        }
      ],
      "name": "Transferred",
      "type": "event"
    },
    {
      "anonymous": false,
      "inputs": [
        {
          "indexed": false,
          "name": "owner",
          "type": "address"
        },
        {
          "indexed": false,
          "name": "amount",
          "type": "uint256"
        }
      ],
      "name": "EcoTransfer",
      "type": "event"
    },
    {
      "anonymous": false,
      "inputs": [
        {
          "indexed": false,
          "name": "addonId",
          "type": "uint256"
        },
        {
          "indexed": false,
          "name": "price",
          "type": "uint256"
        },
        {
          "indexed": false,
          "name": "purchasable",
          "type": "bool"
        }
      ],
      "name": "NewAddon",
      "type": "event"
    },
    {
      "anonymous": false,
      "inputs": [],
      "name": "Pause",
      "type": "event"
    },
    {
      "anonymous": false,
      "inputs": [],
      "name": "Unpause",
      "type": "event"
    },
    {
      "anonymous": false,
      "inputs": [
        {
          "indexed": true,
          "name": "previousOwner",
          "type": "address"
        }
      ],
      "name": "OwnershipRenounced",
      "type": "event"
    },
    {
      "anonymous": false,
      "inputs": [
        {
          "indexed": true,
          "name": "previousOwner",
          "type": "address"
        },
        {
          "indexed": true,
          "name": "newOwner",
          "type": "address"
        }
      ],
      "name": "OwnershipTransferred",
      "type": "event"
    },
    {
      "anonymous": false,
      "inputs": [
        {
          "indexed": true,
          "name": "from",
          "type": "address"
        },
        {
          "indexed": true,
          "name": "to",
          "type": "address"
        },
        {
          "indexed": true,
          "name": "tokenId",
          "type": "uint256"
        }
      ],
      "name": "Transfer",
      "type": "event"
    },
    {
      "anonymous": false,
      "inputs": [
        {
          "indexed": true,
          "name": "owner",
          "type": "address"
        },
        {
          "indexed": true,
          "name": "approved",
          "type": "address"
        },
        {
          "indexed": true,
          "name": "tokenId",
          "type": "uint256"
        }
      ],
      "name": "Approval",
      "type": "event"
    },
    {
      "anonymous": false,
      "inputs": [
        {
          "indexed": true,
          "name": "owner",
          "type": "address"
        },
        {
          "indexed": true,
          "name": "operator",
          "type": "address"
        },
        {
          "indexed": false,
          "name": "approved",
          "type": "bool"
        }
      ],
      "name": "ApprovalForAll",
      "type": "event"
    },
    {
      "constant": false,
      "inputs": [
        {
          "name": "_allotments",
          "type": "uint256[2][][]"
        }
      ],
      "name": "createAllotment",
      "outputs": [
        {
          "name": "success",
          "type": "bool"
        }
      ],
      "payable": true,
      "stateMutability": "payable",
      "type": "function"
    },
    {
      "constant": false,
      "inputs": [],
      "name": "createTestAllotment",
      "outputs": [
        {
          "name": "",
          "type": "uint256"
        }
      ],
      "payable": true,
      "stateMutability": "payable",
      "type": "function"
    },
    {
      "constant": false,
      "inputs": [
        {
          "name": "_tokensDesired",
          "type": "uint256"
        },
        {
          "name": "_to",
          "type": "address"
        }
      ],
      "name": "buyAllotments",
      "outputs": [],
      "payable": true,
      "stateMutability": "payable",
      "type": "function"
    },
    {
      "constant": false,
      "inputs": [
        {
          "name": "_price",
          "type": "uint16"
        },
        {
          "name": "_purchasable",
          "type": "bool"
        }
      ],
      "name": "createMicro",
      "outputs": [
        {
          "name": "",
          "type": "uint256"
        }
      ],
      "payable": false,
      "stateMutability": "nonpayable",
      "type": "function"
    },
    {
      "constant": false,
      "inputs": [
        {
          "name": "tokenID",
          "type": "uint256"
        },
        {
          "name": "addonID",
          "type": "uint16"
        }
      ],
      "name": "purchaseMicro",
      "outputs": [
        {
          "name": "",
          "type": "uint16[]"
        }
      ],
      "payable": true,
      "stateMutability": "payable",
      "type": "function"
    },
    {
      "constant": false,
      "inputs": [],
      "name": "withdrawAll",
      "outputs": [],
      "payable": true,
      "stateMutability": "payable",
      "type": "function"
    },
    {
      "constant": true,
      "inputs": [],
      "name": "ownedAllotments",
      "outputs": [
        {
          "name": "",
          "type": "uint256[]"
        }
      ],
      "payable": false,
      "stateMutability": "view",
      "type": "function"
    },
    {
      "constant": true,
      "inputs": [],
      "name": "tokensOwnedByContract",
      "outputs": [
        {
          "name": "",
          "type": "uint256[]"
        }
      ],
      "payable": false,
      "stateMutability": "view",
      "type": "function"
    },
    {
      "constant": true,
      "inputs": [
        {
          "name": "id",
          "type": "uint256"
        }
      ],
      "name": "allotmentDetails",
      "outputs": [
        {
          "name": "",
          "type": "uint256"
        },
        {
          "name": "",
          "type": "uint256[2][]"
        },
        {
          "name": "",
          "type": "uint16[]"
        }
      ],
      "payable": false,
      "stateMutability": "view",
      "type": "function"
    },
    {
      "constant": false,
      "inputs": [
        {
          "name": "_currentPrice",
          "type": "uint256"
        }
      ],
      "name": "setCurrentPrice",
      "outputs": [],
      "payable": false,
      "stateMutability": "nonpayable",
      "type": "function"
    },
    {
      "constant": false,
      "inputs": [
        {
          "name": "_ecoBucksAddress",
          "type": "address"
        }
      ],
      "name": "setEcoBucksAddress",
      "outputs": [],
      "payable": false,
      "stateMutability": "nonpayable",
      "type": "function"
    }
  ],
  "bytecode": "0x60806040526000600560146101000a81548160ff02191690831515021790555030600860006101000a81548173ffffffffffffffffffffffffffffffffffffffff021916908373ffffffffffffffffffffffffffffffffffffffff16021790555060196009553480156200007257600080fd5b5060405162004de538038062004de5833981810160405262000098919081019062000205565b620000b06301ffc9a760e01b6200011660201b60201c565b620000c86380ac58cd60e01b6200011660201b60201c565b33600560006101000a81548173ffffffffffffffffffffffffffffffffffffffff021916908373ffffffffffffffffffffffffffffffffffffffff16021790555060008190505050620002f4565b63ffffffff60e01b817bffffffffffffffffffffffffffffffffffffffffffffffffffffffff1916141562000182576040517f08c379a0000000000000000000000000000000000000000000000000000000008152600401620001799062000273565b60405180910390fd5b6001600080837bffffffffffffffffffffffffffffffffffffffffffffffffffffffff19167bffffffffffffffffffffffffffffffffffffffffffffffffffffffff1916815260200190815260200160002060006101000a81548160ff02191690831515021790555050565b600081519050620001ff81620002da565b92915050565b6000602082840312156200021857600080fd5b60006200022884828501620001ee565b91505092915050565b600062000240601c8362000295565b91507f4552433136353a20696e76616c696420696e74657266616365206964000000006000830152602082019050919050565b600060208201905081810360008301526200028e8162000231565b9050919050565b600082825260208201905092915050565b6000620002b382620002ba565b9050919050565b600073ffffffffffffffffffffffffffffffffffffffff82169050919050565b620002e581620002a6565b8114620002f157600080fd5b50565b614ae180620003046000396000f3fe6080604052600436106101ee5760003560e01c806370a082311161010d57806397a2a46a116100a0578063b88d4fde1161006f578063b88d4fde14610699578063bb713609146106c2578063e985e9c5146106eb578063ef859f7414610728578063f2fde38b14610766576101ee565b806397a2a46a146105f75780639d1b464a14610627578063a22cb46514610652578063b6ac10241461067b576101ee565b80638456cb59116100dc5780638456cb5914610580578063853828b6146105975780638da5cb5b146105a157806395d89b41146105cc576101ee565b806370a08231146104d6578063715018a6146105135780638098e9571461052a578063838938c314610555576101ee565b806337e3d22c116101855780635bf8633a116101545780635bf8633a146104185780635c975abb146104435780636352211e1461046e5780636cf2eaaa146104ab576101ee565b806337e3d22c1461037f5780633f4ba83a1461039b57806342842e0e146103b25780635afebfec146103db576101ee565b806318b20071116101c157806318b20071146102be57806323b872dd146102e7578063301f62c41461031057806335e900cd14610340576101ee565b806301ffc9a7146101f057806306fdde031461022d578063081812fc14610258578063095ea7b314610295575b005b3480156101fc57600080fd5b506102176004803603610212919081019061347b565b61078f565b60405161022491906142ae565b60405180910390f35b34801561023957600080fd5b506102426107f6565b60405161024f91906142ff565b60405180910390f35b34801561026457600080fd5b5061027f600480360361027a9190810190613509565b61082f565b60405161028c91906140ac565b60405180910390f35b3480156102a157600080fd5b506102bc60048036036102b79190810190613390565b6108b4565b005b3480156102ca57600080fd5b506102e560048036036102e09190810190613509565b610a61565b005b3480156102f357600080fd5b5061030e6004803603610309919081019061328a565b610ad2565b005b61032a60048036036103259190810190613597565b610b2b565b604051610337919061426a565b60405180910390f35b34801561034c57600080fd5b5061036760048036036103629190810190613509565b610db4565b60405161037693929190614605565b60405180910390f35b6103996004803603610394919081019061355b565b610f07565b005b3480156103a757600080fd5b506103b06111cf565b005b3480156103be57600080fd5b506103d960048036036103d4919081019061328a565b61128b565b005b3480156103e757600080fd5b5061040260048036036103fd91908101906134cd565b6112ab565b60405161040f91906145ea565b60405180910390f35b34801561042457600080fd5b5061042d6113f8565b60405161043a91906142e4565b60405180910390f35b34801561044f57600080fd5b5061045861141e565b60405161046591906142ae565b60405180910390f35b34801561047a57600080fd5b5061049560048036036104909190810190613509565b611431565b6040516104a291906140ac565b60405180910390f35b3480156104b757600080fd5b506104c06114e3565b6040516104cd91906142c9565b60405180910390f35b3480156104e257600080fd5b506104fd60048036036104f891908101906131fc565b611509565b60405161050a91906145ea565b60405180910390f35b34801561051f57600080fd5b506105286115c8565b005b34801561053657600080fd5b5061053f6116cb565b60405161054c919061428c565b60405180910390f35b34801561056157600080fd5b5061056a611800565b604051610577919061428c565b60405180910390f35b34801561058c57600080fd5b50610595611935565b005b61059f6119f2565b005b3480156105ad57600080fd5b506105b6611ad4565b6040516105c391906140c7565b60405180910390f35b3480156105d857600080fd5b506105e1611afa565b6040516105ee91906142ff565b60405180910390f35b610611600480360361060c91908101906133cc565b611b33565b60405161061e91906142ae565b60405180910390f35b34801561063357600080fd5b5061063c611d87565b60405161064991906145ea565b60405180910390f35b34801561065e57600080fd5b5061067960048036036106749190810190613354565b611d8d565b005b610683611ef9565b60405161069091906145ea565b60405180910390f35b3480156106a557600080fd5b506106c060048036036106bb91908101906132d9565b612051565b005b3480156106ce57600080fd5b506106e960048036036106e491908101906131fc565b6120ad565b005b3480156106f757600080fd5b50610712600480360361070d919081019061324e565b61215d565b60405161071f91906142ae565b60405180910390f35b34801561073457600080fd5b5061074f600480360361074a9190810190613509565b6121f1565b60405161075d9291906145c1565b60405180910390f35b34801561077257600080fd5b5061078d60048036036107889190810190613225565b612239565b005b6000806000837bffffffffffffffffffffffffffffffffffffffffffffffffffffffff19167bffffffffffffffffffffffffffffffffffffffffffffffffffffffff1916815260200190815260200160002060009054906101000a900460ff169050919050565b6040518060400160405280600c81526020017f50616e616d614a756e676c65000000000000000000000000000000000000000081525081565b600061083a8261229f565b610879576040517f08c379a000000000000000000000000000000000000000000000000000000000815260040161087090614541565b60405180910390fd5b6002600083815260200190815260200160002060009054906101000a900473ffffffffffffffffffffffffffffffffffffffff169050919050565b60006108bf82611431565b90508073ffffffffffffffffffffffffffffffffffffffff168373ffffffffffffffffffffffffffffffffffffffff161415610930576040517f08c379a000000000000000000000000000000000000000000000000000000000815260040161092790614581565b60405180910390fd5b8073ffffffffffffffffffffffffffffffffffffffff163373ffffffffffffffffffffffffffffffffffffffff161480610970575061096f813361215d565b5b6109af576040517f08c379a00000000000000000000000000000000000000000000000000000000081526004016109a690614481565b60405180910390fd5b826002600084815260200190815260200160002060006101000a81548173ffffffffffffffffffffffffffffffffffffffff021916908373ffffffffffffffffffffffffffffffffffffffff160217905550818373ffffffffffffffffffffffffffffffffffffffff168273ffffffffffffffffffffffffffffffffffffffff167f8c5be1e5ebec7d5bd14f71427d1e84f3dd0314c0f7b2291e5b200ac8c7c3b92560405160405180910390a4505050565b600560009054906101000a900473ffffffffffffffffffffffffffffffffffffffff1673ffffffffffffffffffffffffffffffffffffffff163373ffffffffffffffffffffffffffffffffffffffff1614610abb57600080fd5b60008111610ac857600080fd5b8060098190555050565b610adc3382612311565b610b1b576040517f08c379a0000000000000000000000000000000000000000000000000000000008152600401610b12906145a1565b60405180910390fd5b610b268383836123ef565b505050565b6060600560149054906101000a900460ff1615610b4757600080fd5b60078261ffff1681548110610b5857fe5b9060005260206000200160000160029054906101000a900460ff16610bb2576040517f08c379a0000000000000000000000000000000000000000000000000000000008152600401610ba990614361565b60405180910390fd5b60078261ffff1681548110610bc357fe5b9060005260206000200160000160009054906101000a900461ffff1661ffff16610bec3361261e565b11610c2c576040517f08c379a0000000000000000000000000000000000000000000000000000000008152600401610c2390614501565b60405180910390fd5b610c358361229f565b610c74576040517f08c379a0000000000000000000000000000000000000000000000000000000008152600401610c6b90614321565b60405180910390fd5b610cae3360078461ffff1681548110610c8957fe5b9060005260206000200160000160009054906101000a900461ffff1661ffff166126d4565b60068381548110610cbb57fe5b906000526020600020906002020160010182908060018154018082558091505090600182039060005260206000209060109182820401919006600202909192909190916101000a81548161ffff021916908361ffff1602179055505060068381548110610d2457fe5b9060005260206000209060020201600101805480602002602001604051908101604052809291908181526020018280548015610da757602002820191906000526020600020906000905b82829054906101000a900461ffff1661ffff1681526020019060020190602082600101049283019260010382029150808411610d6e5790505b5050505050905092915050565b60006060808360068581548110610dc757fe5b906000526020600020906002020160000160068681548110610de557fe5b906000526020600020906002020160010181805480602002602001604051908101604052809291908181526020016000905b82821015610e7a5783829060005260206000209060020201600280602002604051908101604052809291908260028015610e66576020028201915b815481526020019060010190808311610e52575b505050505081526020019060010190610e17565b50505050915080805480602002602001604051908101604052809291908181526020018280548015610ef357602002820191906000526020600020906000905b82829054906101000a900461ffff1661ffff1681526020019060020190602082600101049283019260010382029150808411610eba5790505b505050505090509250925092509193909250565b600560149054906101000a900460ff1615610f2157600080fd5b600073ffffffffffffffffffffffffffffffffffffffff163373ffffffffffffffffffffffffffffffffffffffff1614158015610f8a57503073ffffffffffffffffffffffffffffffffffffffff163373ffffffffffffffffffffffffffffffffffffffff1614155b610f9357600080fd5b8160095402610fa13361261e565b1015610fe2576040517f08c379a0000000000000000000000000000000000000000000000000000000008152600401610fd990614461565b60405180910390fd5b610ff03383600954026126d4565b60603073ffffffffffffffffffffffffffffffffffffffff16638098e9576040518163ffffffff1660e01b815260040160006040518083038186803b15801561103857600080fd5b505afa15801561104c573d6000803e3d6000fd5b505050506040513d6000823e3d601f19601f820116820180604052506110759190810190613411565b9050828151116110ba576040517f08c379a00000000000000000000000000000000000000000000000000000000081526004016110b1906144e1565b60405180910390fd5b60008090505b838110156111c95760008283516110d5612815565b816110dc57fe5b06815181106110e757fe5b60200260200101519050600860009054906101000a900473ffffffffffffffffffffffffffffffffffffffff1673ffffffffffffffffffffffffffffffffffffffff166342842e0e3086846040518463ffffffff1660e01b8152600401611150939291906140e2565b600060405180830381600087803b15801561116a57600080fd5b505af115801561117e573d6000803e3d6000fd5b505050507fe6d858f14d755446648a6e0c8ab8b5a0f58ccc7920d4c910b0454e4dcd869af033826040516111b3929190614165565b60405180910390a15080806001019150506110c0565b50505050565b600560009054906101000a900473ffffffffffffffffffffffffffffffffffffffff1673ffffffffffffffffffffffffffffffffffffffff163373ffffffffffffffffffffffffffffffffffffffff161461122957600080fd5b600560149054906101000a900460ff1661124257600080fd5b6000600560146101000a81548160ff0219169083151502179055507f7805862f689e2f13df9f062ff482ad3ad112aca9e0847911ed832e158c525b3360405160405180910390a1565b6112a683838360405180602001604052806000815250612051565b505050565b6000600560009054906101000a900473ffffffffffffffffffffffffffffffffffffffff1673ffffffffffffffffffffffffffffffffffffffff163373ffffffffffffffffffffffffffffffffffffffff161461130757600080fd5b61130f612e0c565b60405180604001604052808561ffff168152602001841515815250905060006113b0600160078490806001815401808255809150509060018203906000526020600020016000909192909190915060008201518160000160006101000a81548161ffff021916908361ffff16021790555060208201518160000160026101000a81548160ff021916908315150217905550505061286d90919063ffffffff16565b90507f2ab02b61ad44f06b7531de49450d9514094e1cbd4717a44612dbb28609afd95b8186866040516113e59392919061464a565b60405180910390a1809250505092915050565b600860009054906101000a900473ffffffffffffffffffffffffffffffffffffffff1681565b600560149054906101000a900460ff1681565b6000806001600084815260200190815260200160002060009054906101000a900473ffffffffffffffffffffffffffffffffffffffff169050600073ffffffffffffffffffffffffffffffffffffffff168173ffffffffffffffffffffffffffffffffffffffff1614156114da576040517f08c379a00000000000000000000000000000000000000000000000000000000081526004016114d1906144c1565b60405180910390fd5b80915050919050565b600b60009054906101000a900473ffffffffffffffffffffffffffffffffffffffff1681565b60008073ffffffffffffffffffffffffffffffffffffffff168273ffffffffffffffffffffffffffffffffffffffff16141561157a576040517f08c379a0000000000000000000000000000000000000000000000000000000008152600401611571906144a1565b60405180910390fd5b6115c1600360008473ffffffffffffffffffffffffffffffffffffffff1673ffffffffffffffffffffffffffffffffffffffff1681526020019081526020016000206128c3565b9050919050565b600560009054906101000a900473ffffffffffffffffffffffffffffffffffffffff1673ffffffffffffffffffffffffffffffffffffffff163373ffffffffffffffffffffffffffffffffffffffff161461162257600080fd5b600560009054906101000a900473ffffffffffffffffffffffffffffffffffffffff1673ffffffffffffffffffffffffffffffffffffffff167ff8df31144d9c2f0f6b59d69b8b98abd5459d07f2742c4df920b25aae33c6482060405160405180910390a26000600560006101000a81548173ffffffffffffffffffffffffffffffffffffffff021916908373ffffffffffffffffffffffffffffffffffffffff160217905550565b606060006116d830611509565b9050600081141561171c5760006040519080825280602002602001820160405280156117135781602001602082028038833980820191505090505b509150506117fd565b60608160405190808252806020026020018201604052801561174d5781602001602082028038833980820191505090505b50905060006006805490509050600080905060008090505b828110156117f4573073ffffffffffffffffffffffffffffffffffffffff1661178d82611431565b73ffffffffffffffffffffffffffffffffffffffff1614156117d957808483815181106117b657fe5b6020026020010181815250506117d66001836128d190919063ffffffff16565b91505b6117ed6001826128d190919063ffffffff16565b9050611765565b83955050505050505b90565b6060600061180d33611509565b905060008114156118515760006040519080825280602002602001820160405280156118485781602001602082028038833980820191505090505b50915050611932565b6060816040519080825280602002602001820160405280156118825781602001602082028038833980820191505090505b50905060006006805490509050600080905060008090505b82811015611929573373ffffffffffffffffffffffffffffffffffffffff166118c282611431565b73ffffffffffffffffffffffffffffffffffffffff16141561190e57808483815181106118eb57fe5b60200260200101818152505061190b6001836128d190919063ffffffff16565b91505b6119226001826128d190919063ffffffff16565b905061189a565b83955050505050505b90565b600560009054906101000a900473ffffffffffffffffffffffffffffffffffffffff1673ffffffffffffffffffffffffffffffffffffffff163373ffffffffffffffffffffffffffffffffffffffff161461198f57600080fd5b600560149054906101000a900460ff16156119a957600080fd5b6001600560146101000a81548160ff0219169083151502179055507f6985a02210a168e66602d3235cb6db0e70f92b3ba4d376a33c0f3d9434bff62560405160405180910390a1565b600560009054906101000a900473ffffffffffffffffffffffffffffffffffffffff1673ffffffffffffffffffffffffffffffffffffffff163373ffffffffffffffffffffffffffffffffffffffff1614611a4c57600080fd5b60003073ffffffffffffffffffffffffffffffffffffffff16319050600560009054906101000a900473ffffffffffffffffffffffffffffffffffffffff1673ffffffffffffffffffffffffffffffffffffffff166108fc829081150290604051600060405180830381858888f19350505050158015611ad0573d6000803e3d6000fd5b5050565b600560009054906101000a900473ffffffffffffffffffffffffffffffffffffffff1681565b6040518060400160405280600381526020017f50414a000000000000000000000000000000000000000000000000000000000081525081565b6000600560009054906101000a900473ffffffffffffffffffffffffffffffffffffffff1673ffffffffffffffffffffffffffffffffffffffff163373ffffffffffffffffffffffffffffffffffffffff1614611b8f57600080fd5b606060008090505b84849050811015611d7b57611baa612e2c565b6040518060400160405280878785818110611bc157fe5b9050602002810180356001602003833603038112611bde57600080fd5b8083019250508135905060208201915067ffffffffffffffff811115611c0357600080fd5b604081023603821315611c1557600080fd5b808060200260200160405190810160405280939291908181526020016000905b82821015611c8c578484839050604002016002806020026040519081016040528092919082600260200280828437600081840152601f19601f82011690508083019250505050505081526020019060010190611c35565b505050505081526020018481525090506000611d1b6001600684908060018154018082558091505090600182039060005260206000209060020201600090919290919091506000820151816000019080519060200190611ced929190612e46565b506020820151816001019080519060200190611d0a929190612ea4565b50505061286d90919063ffffffff16565b9050611d273082612926565b7f90f80c656ecf74d465a3e2f0d9d5b532468f034f603782f8c48238341636de0d308284600001518560200151604051611d64949392919061418e565b60405180910390a150508080600101915050611b97565b50600191505092915050565b60095481565b3373ffffffffffffffffffffffffffffffffffffffff168273ffffffffffffffffffffffffffffffffffffffff161415611dfc576040517f08c379a0000000000000000000000000000000000000000000000000000000008152600401611df3906143e1565b60405180910390fd5b80600460003373ffffffffffffffffffffffffffffffffffffffff1673ffffffffffffffffffffffffffffffffffffffff16815260200190815260200160002060008473ffffffffffffffffffffffffffffffffffffffff1673ffffffffffffffffffffffffffffffffffffffff16815260200190815260200160002060006101000a81548160ff0219169083151502179055508173ffffffffffffffffffffffffffffffffffffffff163373ffffffffffffffffffffffffffffffffffffffff167f17307eab39ab6107e8899845ad3d59bd9653f200f220920489ca2b5937696c3183604051611eed91906142ae565b60405180910390a35050565b6000600560009054906101000a900473ffffffffffffffffffffffffffffffffffffffff1673ffffffffffffffffffffffffffffffffffffffff163373ffffffffffffffffffffffffffffffffffffffff1614611f5557600080fd5b606080611f60612e2c565b60405180604001604052808381526020018481525090506000611ff66001600684908060018154018082558091505090600182039060005260206000209060020201600090919290919091506000820151816000019080519060200190611fc8929190612e46565b506020820151816001019080519060200190611fe5929190612ea4565b50505061286d90919063ffffffff16565b90506120023082612926565b7f90f80c656ecf74d465a3e2f0d9d5b532468f034f603782f8c48238341636de0d30828460000151856020015160405161203f949392919061418e565b60405180910390a18094505050505090565b61205c848484610ad2565b61206884848484612ad8565b6120a7576040517f08c379a000000000000000000000000000000000000000000000000000000000815260040161209e90614341565b60405180910390fd5b50505050565b600560009054906101000a900473ffffffffffffffffffffffffffffffffffffffff1673ffffffffffffffffffffffffffffffffffffffff163373ffffffffffffffffffffffffffffffffffffffff161461210757600080fd5b61211081612bef565b61211957600080fd5b80600b60006101000a81548173ffffffffffffffffffffffffffffffffffffffff021916908373ffffffffffffffffffffffffffffffffffffffff16021790555050565b6000600460008473ffffffffffffffffffffffffffffffffffffffff1673ffffffffffffffffffffffffffffffffffffffff16815260200190815260200160002060008373ffffffffffffffffffffffffffffffffffffffff1673ffffffffffffffffffffffffffffffffffffffff16815260200190815260200160002060009054906101000a900460ff16905092915050565b600781815481106121fe57fe5b906000526020600020016000915090508060000160009054906101000a900461ffff16908060000160029054906101000a900460ff16905082565b600560009054906101000a900473ffffffffffffffffffffffffffffffffffffffff1673ffffffffffffffffffffffffffffffffffffffff163373ffffffffffffffffffffffffffffffffffffffff161461229357600080fd5b61229c81612c08565b50565b6000806001600084815260200190815260200160002060009054906101000a900473ffffffffffffffffffffffffffffffffffffffff169050600073ffffffffffffffffffffffffffffffffffffffff168173ffffffffffffffffffffffffffffffffffffffff161415915050919050565b600061231c8261229f565b61235b576040517f08c379a000000000000000000000000000000000000000000000000000000000815260040161235290614441565b60405180910390fd5b600061236683611431565b90508073ffffffffffffffffffffffffffffffffffffffff168473ffffffffffffffffffffffffffffffffffffffff1614806123d557508373ffffffffffffffffffffffffffffffffffffffff166123bd8461082f565b73ffffffffffffffffffffffffffffffffffffffff16145b806123e657506123e5818561215d565b5b91505092915050565b8273ffffffffffffffffffffffffffffffffffffffff1661240f82611431565b73ffffffffffffffffffffffffffffffffffffffff1614612465576040517f08c379a000000000000000000000000000000000000000000000000000000000815260040161245c90614561565b60405180910390fd5b600073ffffffffffffffffffffffffffffffffffffffff168273ffffffffffffffffffffffffffffffffffffffff1614156124d5576040517f08c379a00000000000000000000000000000000000000000000000000000000081526004016124cc906143c1565b60405180910390fd5b6124de81612d02565b612525600360008573ffffffffffffffffffffffffffffffffffffffff1673ffffffffffffffffffffffffffffffffffffffff168152602001908152602001600020612dc0565b61256c600360008473ffffffffffffffffffffffffffffffffffffffff1673ffffffffffffffffffffffffffffffffffffffff168152602001908152602001600020612de3565b816001600083815260200190815260200160002060006101000a81548173ffffffffffffffffffffffffffffffffffffffff021916908373ffffffffffffffffffffffffffffffffffffffff160217905550808273ffffffffffffffffffffffffffffffffffffffff168473ffffffffffffffffffffffffffffffffffffffff167fddf252ad1be2c89b69c2b068fc378daa952ba7f163c4a11628f55a4df523b3ef60405160405180910390a4505050565b6000600b60009054906101000a900473ffffffffffffffffffffffffffffffffffffffff1673ffffffffffffffffffffffffffffffffffffffff1663dd62ed3e83306040518363ffffffff1660e01b815260040161267d9291906141e1565b60206040518083038186803b15801561269557600080fd5b505afa1580156126a9573d6000803e3d6000fd5b505050506040513d601f19601f820116820180604052506126cd9190810190613532565b9050919050565b806126de8361261e565b116126e857600080fd5b600b60009054906101000a900473ffffffffffffffffffffffffffffffffffffffff1673ffffffffffffffffffffffffffffffffffffffff166323b872dd8330846040518463ffffffff1660e01b81526004016127479392919061420a565b602060405180830381600087803b15801561276157600080fd5b505af1158015612775573d6000803e3d6000fd5b505050506040513d601f19601f820116820180604052506127999190810190613452565b6127d8576040517f08c379a00000000000000000000000000000000000000000000000000000000081526004016127cf90614401565b60405180910390fd5b7f99b66143a3ffe76dc894b2fb44bf93c988746a74beba53e99a7886097eb2984b8282604051612809929190614241565b60405180910390a15050565b60008060644233600a546040516020016128319392919061406f565b6040516020818303038152906040528051906020012060001c8161285157fe5b069050600a600081548092919060010191905055508091505090565b6000828211156128b2576040517f08c379a00000000000000000000000000000000000000000000000000000000081526004016128a990614421565b60405180910390fd5b600082840390508091505092915050565b600081600001549050919050565b60008082840190508381101561291c576040517f08c379a0000000000000000000000000000000000000000000000000000000008152600401612913906143a1565b60405180910390fd5b8091505092915050565b600073ffffffffffffffffffffffffffffffffffffffff168273ffffffffffffffffffffffffffffffffffffffff161415612996576040517f08c379a000000000000000000000000000000000000000000000000000000000815260040161298d90614521565b60405180910390fd5b61299f8161229f565b156129df576040517f08c379a00000000000000000000000000000000000000000000000000000000081526004016129d690614381565b60405180910390fd5b816001600083815260200190815260200160002060006101000a81548173ffffffffffffffffffffffffffffffffffffffff021916908373ffffffffffffffffffffffffffffffffffffffff160217905550612a78600360008473ffffffffffffffffffffffffffffffffffffffff1673ffffffffffffffffffffffffffffffffffffffff168152602001908152602001600020612de3565b808273ffffffffffffffffffffffffffffffffffffffff16600073ffffffffffffffffffffffffffffffffffffffff167fddf252ad1be2c89b69c2b068fc378daa952ba7f163c4a11628f55a4df523b3ef60405160405180910390a45050565b6000612af98473ffffffffffffffffffffffffffffffffffffffff16612df9565b612b065760019050612be7565b60008473ffffffffffffffffffffffffffffffffffffffff1663150b7a02338887876040518563ffffffff1660e01b8152600401612b479493929190614119565b602060405180830381600087803b158015612b6157600080fd5b505af1158015612b75573d6000803e3d6000fd5b505050506040513d601f19601f82011682018060405250612b9991908101906134a4565b905063150b7a0260e01b7bffffffffffffffffffffffffffffffffffffffffffffffffffffffff1916817bffffffffffffffffffffffffffffffffffffffffffffffffffffffff1916149150505b949350505050565b600080823b905060008163ffffffff1611915050919050565b600073ffffffffffffffffffffffffffffffffffffffff168173ffffffffffffffffffffffffffffffffffffffff161415612c4257600080fd5b8073ffffffffffffffffffffffffffffffffffffffff16600560009054906101000a900473ffffffffffffffffffffffffffffffffffffffff1673ffffffffffffffffffffffffffffffffffffffff167f8be0079c531659141344cd1fd0a4f28419497f9722a3daafe3b4186f6b6457e060405160405180910390a380600560006101000a81548173ffffffffffffffffffffffffffffffffffffffff021916908373ffffffffffffffffffffffffffffffffffffffff16021790555050565b600073ffffffffffffffffffffffffffffffffffffffff166002600083815260200190815260200160002060009054906101000a900473ffffffffffffffffffffffffffffffffffffffff1673ffffffffffffffffffffffffffffffffffffffff1614612dbd5760006002600083815260200190815260200160002060006101000a81548173ffffffffffffffffffffffffffffffffffffffff021916908373ffffffffffffffffffffffffffffffffffffffff1602179055505b50565b612dd86001826000015461286d90919063ffffffff16565b816000018190555050565b6001816000016000828254019250508190555050565b600080823b905060008111915050919050565b6040518060400160405280600061ffff1681526020016000151581525090565b604051806040016040528060608152602001606081525090565b828054828255906000526020600020906002028101928215612e93579160200282015b82811115612e9257825182906002612e82929190612f4e565b5091602001919060020190612e69565b5b509050612ea09190612f8e565b5090565b82805482825590600052602060002090600f01601090048101928215612f3d5791602002820160005b83821115612f0d57835183826101000a81548161ffff021916908361ffff1602179055509260200192600201602081600101049283019260010302612ecd565b8015612f3b5782816101000a81549061ffff0219169055600201602081600101049283019260010302612f0d565b505b509050612f4a9190612fba565b5090565b8260028101928215612f7d579160200282015b82811115612f7c578251825591602001919060010190612f61565b5b509050612f8a9190612feb565b5090565b612fb791905b80821115612fb35760008181612faa9190613010565b50600201612f94565b5090565b90565b612fe891905b80821115612fe457600081816101000a81549061ffff021916905550600101612fc0565b5090565b90565b61300d91905b80821115613009576000816000905550600101612ff1565b5090565b90565b506000815560010160009055565b60008135905061302d81614a14565b92915050565b60008135905061304281614a2b565b92915050565b60008083601f84011261305a57600080fd5b8235905067ffffffffffffffff81111561307357600080fd5b60208301915083602082028301111561308b57600080fd5b9250929050565b600082601f8301126130a357600080fd5b81516130b66130b1826146ae565b614681565b915081818352602084019350602081019050838560208402820111156130db57600080fd5b60005b8381101561310b57816130f188826131e7565b8452602084019350602083019250506001810190506130de565b5050505092915050565b60008135905061312481614a42565b92915050565b60008151905061313981614a42565b92915050565b60008135905061314e81614a59565b92915050565b60008151905061316381614a59565b92915050565b600082601f83011261317a57600080fd5b813561318d613188826146d6565b614681565b915080825260208301602083018583830111156131a957600080fd5b6131b4838284614986565b50505092915050565b6000813590506131cc81614a70565b92915050565b6000813590506131e181614a87565b92915050565b6000815190506131f681614a87565b92915050565b60006020828403121561320e57600080fd5b600061321c8482850161301e565b91505092915050565b60006020828403121561323757600080fd5b600061324584828501613033565b91505092915050565b6000806040838503121561326157600080fd5b600061326f8582860161301e565b92505060206132808582860161301e565b9150509250929050565b60008060006060848603121561329f57600080fd5b60006132ad8682870161301e565b93505060206132be8682870161301e565b92505060406132cf868287016131d2565b9150509250925092565b600080600080608085870312156132ef57600080fd5b60006132fd8782880161301e565b945050602061330e8782880161301e565b935050604061331f878288016131d2565b925050606085013567ffffffffffffffff81111561333c57600080fd5b61334887828801613169565b91505092959194509250565b6000806040838503121561336757600080fd5b60006133758582860161301e565b925050602061338685828601613115565b9150509250929050565b600080604083850312156133a357600080fd5b60006133b18582860161301e565b92505060206133c2858286016131d2565b9150509250929050565b600080602083850312156133df57600080fd5b600083013567ffffffffffffffff8111156133f957600080fd5b61340585828601613048565b92509250509250929050565b60006020828403121561342357600080fd5b600082015167ffffffffffffffff81111561343d57600080fd5b61344984828501613092565b91505092915050565b60006020828403121561346457600080fd5b60006134728482850161312a565b91505092915050565b60006020828403121561348d57600080fd5b600061349b8482850161313f565b91505092915050565b6000602082840312156134b657600080fd5b60006134c484828501613154565b91505092915050565b600080604083850312156134e057600080fd5b60006134ee858286016131bd565b92505060206134ff85828601613115565b9150509250929050565b60006020828403121561351b57600080fd5b6000613529848285016131d2565b91505092915050565b60006020828403121561354457600080fd5b6000613552848285016131e7565b91505092915050565b6000806040838503121561356e57600080fd5b600061357c858286016131d2565b925050602061358d8582860161301e565b9150509250929050565b600080604083850312156135aa57600080fd5b60006135b8858286016131d2565b92505060206135c9858286016131bd565b9150509250929050565b60006135df83836137d7565b60408301905092915050565b60006135f7838361400d565b60208301905092915050565b600061360f838361403a565b60208301905092915050565b613624816148f6565b82525050565b61363381614874565b82525050565b61364a61364582614874565b6149c8565b82525050565b61365981614862565b82525050565b600061366a82614767565b6136748185614802565b935061367f83614712565b8060005b838110156136b057815161369788826135d3565b97506136a2836147c1565b925050600181019050613683565b5085935050505092915050565b60006136c88261475c565b6136d28185614802565b93506136dd83614702565b8060005b8381101561370e5781516136f588826135d3565b9750613700836147b4565b9250506001810190506136e1565b5085935050505092915050565b60006137268261477d565b6137308185614813565b935061373b83614732565b8060005b8381101561376c57815161375388826135eb565b975061375e836147db565b92505060018101905061373f565b5085935050505092915050565b600061378482614772565b61378e8185614813565b935061379983614722565b8060005b838110156137ca5781516137b188826135eb565b97506137bc836147ce565b92505060018101905061379d565b5085935050505092915050565b6137e081614788565b6137ea8184614824565b92506137f582614742565b8060005b8381101561382657815161380d8782613603565b9650613818836147e8565b9250506001810190506137f9565b505050505050565b600061383982614793565b613843818561482f565b935061384e8361474c565b8060005b8381101561387f5781516138668882613603565b9750613871836147f5565b925050600181019050613852565b5085935050505092915050565b61389581614886565b82525050565b60006138a68261479e565b6138b08185614840565b93506138c0818560208601614995565b6138c9816149f6565b840191505092915050565b6138dd81614908565b82525050565b6138ec8161492c565b82525050565b60006138fd826147a9565b6139078185614851565b9350613917818560208601614995565b613920816149f6565b840191505092915050565b6000613938601d83614851565b91507f53656c656374656420546f6b656e20646f6573206e6f742065786973740000006000830152602082019050919050565b6000613978603283614851565b91507f4552433732313a207472616e7366657220746f206e6f6e20455243373231526560008301527f63656976657220696d706c656d656e74657200000000000000000000000000006020830152604082019050919050565b60006139de603983614851565b91507f53656c6563746564206d6963726f6164646f6e20646f6573206e6f742065786960008301527f7374206f72206973206e6f74207075726368617361626c652e000000000000006020830152604082019050919050565b6000613a44601c83614851565b91507f4552433732313a20746f6b656e20616c7265616479206d696e746564000000006000830152602082019050919050565b6000613a84601b83614851565b91507f536166654d6174683a206164646974696f6e206f766572666c6f7700000000006000830152602082019050919050565b6000613ac4602483614851565b91507f4552433732313a207472616e7366657220746f20746865207a65726f2061646460008301527f72657373000000000000000000000000000000000000000000000000000000006020830152604082019050919050565b6000613b2a601983614851565b91507f4552433732313a20617070726f766520746f2063616c6c6572000000000000006000830152602082019050919050565b6000613b6a601b83614851565b91507f5472616e73666572206f662045636f4275636b73206661696c656400000000006000830152602082019050919050565b6000613baa601e83614851565b91507f536166654d6174683a207375627472616374696f6e206f766572666c6f7700006000830152602082019050919050565b6000613bea602c83614851565b91507f4552433732313a206f70657261746f7220717565727920666f72206e6f6e657860008301527f697374656e7420746f6b656e00000000000000000000000000000000000000006020830152604082019050919050565b6000613c50601e83614851565b91507f4e6f7420656e6f75676820617661696c616c62652045636f6275636b732100006000830152602082019050919050565b6000613c90603883614851565b91507f4552433732313a20617070726f76652063616c6c6572206973206e6f74206f7760008301527f6e6572206e6f7220617070726f76656420666f7220616c6c00000000000000006020830152604082019050919050565b6000613cf6602a83614851565b91507f4552433732313a2062616c616e636520717565727920666f7220746865207a6560008301527f726f2061646472657373000000000000000000000000000000000000000000006020830152604082019050919050565b6000613d5c602983614851565b91507f4552433732313a206f776e657220717565727920666f72206e6f6e657869737460008301527f656e7420746f6b656e00000000000000000000000000000000000000000000006020830152604082019050919050565b6000613dc2601c83614851565b91507f4e6f7420656e6f75676820617661696c61626c6520746f6b656e7321000000006000830152602082019050919050565b6000613e02601e83614851565b91507f4e6f7420656e6f75676820617661696c61626c652045636f6275636b732100006000830152602082019050919050565b6000613e42602083614851565b91507f4552433732313a206d696e7420746f20746865207a65726f20616464726573736000830152602082019050919050565b6000613e82602c83614851565b91507f4552433732313a20617070726f76656420717565727920666f72206e6f6e657860008301527f697374656e7420746f6b656e00000000000000000000000000000000000000006020830152604082019050919050565b6000613ee8602983614851565b91507f4552433732313a207472616e73666572206f6620746f6b656e2074686174206960008301527f73206e6f74206f776e00000000000000000000000000000000000000000000006020830152604082019050919050565b6000613f4e602183614851565b91507f4552433732313a20617070726f76616c20746f2063757272656e74206f776e6560008301527f72000000000000000000000000000000000000000000000000000000000000006020830152604082019050919050565b6000613fb4603183614851565b91507f4552433732313a207472616e736665722063616c6c6572206973206e6f74206f60008301527f776e6572206e6f7220617070726f7665640000000000000000000000000000006020830152604082019050919050565b614016816148be565b82525050565b614025816148be565b82525050565b61403481614974565b82525050565b614043816148ec565b82525050565b614052816148ec565b82525050565b614069614064826148ec565b6149ec565b82525050565b600061407b8286614058565b60208201915061408b8285613639565b60148201915061409b8284614058565b602082019150819050949350505050565b60006020820190506140c16000830184613650565b92915050565b60006020820190506140dc600083018461362a565b92915050565b60006060820190506140f7600083018661361b565b6141046020830185613650565b6141116040830184614049565b949350505050565b600060808201905061412e600083018761361b565b61413b6020830186613650565b6141486040830185614049565b818103606083015261415a818461389b565b905095945050505050565b600060408201905061417a600083018561361b565b6141876020830184614049565b9392505050565b60006080820190506141a3600083018761361b565b6141b06020830186614049565b81810360408301526141c281856136bd565b905081810360608301526141d68184613779565b905095945050505050565b60006040820190506141f66000830185613650565b614203602083018461361b565b9392505050565b600060608201905061421f6000830186613650565b61422c602083018561361b565b6142396040830184614049565b949350505050565b60006040820190506142566000830185613650565b6142636020830184614049565b9392505050565b60006020820190508181036000830152614284818461371b565b905092915050565b600060208201905081810360008301526142a6818461382e565b905092915050565b60006020820190506142c3600083018461388c565b92915050565b60006020820190506142de60008301846138d4565b92915050565b60006020820190506142f960008301846138e3565b92915050565b6000602082019050818103600083015261431981846138f2565b905092915050565b6000602082019050818103600083015261433a8161392b565b9050919050565b6000602082019050818103600083015261435a8161396b565b9050919050565b6000602082019050818103600083015261437a816139d1565b9050919050565b6000602082019050818103600083015261439a81613a37565b9050919050565b600060208201905081810360008301526143ba81613a77565b9050919050565b600060208201905081810360008301526143da81613ab7565b9050919050565b600060208201905081810360008301526143fa81613b1d565b9050919050565b6000602082019050818103600083015261441a81613b5d565b9050919050565b6000602082019050818103600083015261443a81613b9d565b9050919050565b6000602082019050818103600083015261445a81613bdd565b9050919050565b6000602082019050818103600083015261447a81613c43565b9050919050565b6000602082019050818103600083015261449a81613c83565b9050919050565b600060208201905081810360008301526144ba81613ce9565b9050919050565b600060208201905081810360008301526144da81613d4f565b9050919050565b600060208201905081810360008301526144fa81613db5565b9050919050565b6000602082019050818103600083015261451a81613df5565b9050919050565b6000602082019050818103600083015261453a81613e35565b9050919050565b6000602082019050818103600083015261455a81613e75565b9050919050565b6000602082019050818103600083015261457a81613edb565b9050919050565b6000602082019050818103600083015261459a81613f41565b9050919050565b600060208201905081810360008301526145ba81613fa7565b9050919050565b60006040820190506145d6600083018561401c565b6145e3602083018461388c565b9392505050565b60006020820190506145ff6000830184614049565b92915050565b600060608201905061461a6000830186614049565b818103602083015261462c818561365f565b90508181036040830152614640818461371b565b9050949350505050565b600060608201905061465f6000830186614049565b61466c602083018561402b565b614679604083018461388c565b949350505050565b6000604051905081810181811067ffffffffffffffff821117156146a457600080fd5b8060405250919050565b600067ffffffffffffffff8211156146c557600080fd5b602082029050602081019050919050565b600067ffffffffffffffff8211156146ed57600080fd5b601f19601f8301169050602081019050919050565b6000819050602082019050919050565b6000819050602082019050919050565b6000819050602082019050919050565b6000819050602082019050919050565b6000819050919050565b6000819050602082019050919050565b600081519050919050565b600081519050919050565b600081519050919050565b600081519050919050565b600060029050919050565b600081519050919050565b600081519050919050565b600081519050919050565b6000602082019050919050565b6000602082019050919050565b6000602082019050919050565b6000602082019050919050565b6000602082019050919050565b6000602082019050919050565b600082825260208201905092915050565b600082825260208201905092915050565b600081905092915050565b600082825260208201905092915050565b600082825260208201905092915050565b600082825260208201905092915050565b600061486d826148cc565b9050919050565b600061487f826148cc565b9050919050565b60008115159050919050565b60007fffffffff0000000000000000000000000000000000000000000000000000000082169050919050565b600061ffff82169050919050565b600073ffffffffffffffffffffffffffffffffffffffff82169050919050565b6000819050919050565b600061490182614950565b9050919050565b60006149138261491a565b9050919050565b6000614925826148cc565b9050919050565b60006149378261493e565b9050919050565b6000614949826148cc565b9050919050565b600061495b82614962565b9050919050565b600061496d826148cc565b9050919050565b600061497f826148be565b9050919050565b82818337600083830152505050565b60005b838110156149b3578082015181840152602081019050614998565b838111156149c2576000848401525b50505050565b60006149d3826149da565b9050919050565b60006149e582614a07565b9050919050565b6000819050919050565b6000601f19601f8301169050919050565b60008160601b9050919050565b614a1d81614862565b8114614a2857600080fd5b50565b614a3481614874565b8114614a3f57600080fd5b50565b614a4b81614886565b8114614a5657600080fd5b50565b614a6281614892565b8114614a6d57600080fd5b50565b614a79816148be565b8114614a8457600080fd5b50565b614a90816148ec565b8114614a9b57600080fd5b5056fea365627a7a72305820005f05698370dfebb4387acaeca5d0e460f520dca47f1df848f6062a8d631f6a6c6578706572696d656e74616cf564736f6c634300050a0040",
  "source": "pragma solidity 0.5.10;\n// Use the experimental encoder for the nested arrays of token creation\npragma experimental ABIEncoderV2;\n// Import OpenZeppelin's ERC-721 Implementation\nimport \"openzeppelin-solidity/contracts/token/ERC721/ERC721.sol\";\n// Import OpenZeppelin's SafeMath Implementation\nimport \"openzeppelin-solidity/contracts/math/SafeMath.sol\";\nimport \"./utils/Ownable.sol\";\nimport \"./utils/Pausable.sol\";\nimport \"./utils/Erc20.sol\";\n\n\ncontract PanamaJungle is ERC721, Ownable, Pausable {\n\n    using SafeMath for uint256;\n\n    // This struct will be used to represent one allotment of land\n    struct Allotment {\n        // Array of lat/lng points to represent the boundaries of a point.\n        uint256[2][] geoMap;\n        // Array of microaddons for each allotment\n        uint16[] addons;\n    }\n\n    // List of existing allotments\n    Allotment[] internal allotments;\n\n    // Struct defines the microaddons for an allotment.\n    struct MicroAddon {\n        uint16 price;\n        bool purchasable;\n    }\n\n    // List of existing microAddons\n    MicroAddon[] public microAddons;\n\n    // Event that will be emitted whenever a new allotment is created or ownership is transferred\n    event Birth(\n        address owner,\n        uint256 allotmentId,\n        uint256[2][] geoMap,\n        uint16[] addons\n    );\n\n    // Event that will be emitted whenever ownership is transferred of a token\n    event Transferred(\n        address owner,\n        uint256 allotmentId\n    );\n\n    // Event emitted when ECOB are transferred from user to contract\n    event EcoTransfer(\n        address owner,\n        uint256 amount\n    );\n\n    // Event emitted when a new mircoAddon is created\n    event NewAddon(\n        uint256 addonId,\n        uint256 price,\n        bool purchasable\n    );\n\n    // Define name and token symbol\n    string public constant name = \"PanamaJungle\";\n    string public constant symbol = \"PAJ\";\n\n    ERC721 public nftAddress = ERC721(address(this));\n    uint256 public currentPrice = 25; // Default to 2 ECOB per allotment. Changed by setCurrentPrice()\n    uint private randomNonce; // Nonce for RNG. Can be predictable as it only determines which allotment to buy\n    ERC20 public ecoBucksAddress;\n\n    // Start contract with new EcoBucks address\n    constructor(address _ecoBucksAddress) public ERC721() {\n        ERC20 ecoBucksAddress = ERC20(_ecoBucksAddress);\n    }\n\n    // Fallback function\n    // solhint-disable-next-line no-empty-blocks\n    function() external payable {\n    }\n\n    /** @dev Function to group create allotments\n    * @param _allotments an array of arrays of points for creating the allotment bounds\n        * Each lat lng point has six decimal points, about 4 inches of precision.\n        * (precision is not accuracy, note https://gis.stackexchange.com/a/8674 )\n    * @return The new allotment's ID\n    */\n    function createAllotment(uint256[2][][] calldata _allotments) external payable onlyOwner returns (bool success) {\n        uint16[] memory addons;\n        for (uint i = 0; i < _allotments.length; i++) {\n            Allotment memory newAllotment = Allotment({\n                geoMap: _allotments[i],\n                addons: addons\n            });\n            uint256 newAllotmentId = allotments.push(newAllotment).sub(1);\n            super._mint(address(this), newAllotmentId);\n            emit Birth(\n                address(this),\n                newAllotmentId,\n                newAllotment.geoMap,\n                newAllotment.addons\n            );\n        }\n        return true;\n    }\n\n    /** @dev Function to create test allotments\n    * @return The new allotment's ID\n    */\n    function createTestAllotment() external payable onlyOwner returns (uint256) {\n        uint16[] memory addons;\n        uint256[2][] memory geoPoints;\n        Allotment memory newAllotment = Allotment({\n            geoMap: geoPoints,\n            addons: addons\n        });\n        uint256 newAllotmentId = allotments.push(newAllotment).sub(1);\n        super._mint(address(this), newAllotmentId);\n        emit Birth(\n            address(this),\n            newAllotmentId,\n            newAllotment.geoMap,\n            newAllotment.addons\n        );\n        return newAllotmentId;\n    }\n\n    /** @dev Function to buy one or more allotments\n    * @param _tokensDesired number of tokens desired\n    */\n    function buyAllotments(uint256 _tokensDesired, address _to) external payable whenNotPaused {\n        require(msg.sender != address(0) && msg.sender != address(this)); // Only be used by users to buy allotments\n        require(availableECO(msg.sender) >= currentPrice * _tokensDesired, \"Not enough availalbe Ecobucks!\");\n\n        // Take money from account before so no chance of re entry\n        takeEco(msg.sender, currentPrice * _tokensDesired);\n\n        uint256[] memory contractTokens = this.tokensOwnedByContract(); // Array of contract tokens for random selection\n\n        require(contractTokens.length > _tokensDesired, \"Not enough available tokens!\"); // Need enough tokens available\n\n        for (uint i = 0; i < _tokensDesired; i++) {\n            uint tokenId = contractTokens[random()%contractTokens.length]; // Select random token from contract tokens\n\n            nftAddress.safeTransferFrom(address(this), _to, tokenId); // Transfer token from contract to user\n\n            emit Transferred(\n                msg.sender,\n                tokenId\n            );\n        }\n\n    }\n\n    /** @dev Function to create a new type of microaddon\n    * @param _price uint of the cost (in ecoBucks) of the new microaddon\n    * @param _purchasable bool determining if the new microaddon can be purchased by users\n    * @return The new addon's ID\n    */\n    function createMicro(uint16 _price, bool _purchasable) external onlyOwner returns (uint256) {\n        MicroAddon memory newAddon = MicroAddon({\n            price: _price,\n            purchasable: _purchasable\n        });\n        uint256 newAddonId = microAddons.push(newAddon).sub(1);\n        emit NewAddon(\n            newAddonId,\n            _price,\n            _purchasable\n        );\n        return newAddonId;\n    }\n\n    /** @dev Function to add vitrual microtransactions to an allotment\n    * @param tokenID id of the token to add the microtransactions to\n    * @param addonID Desired name of the addon mapped to an id\n    * @return All microtransactions on tokenID\n    */\n    function purchaseMicro(uint256 tokenID, uint16 addonID) external payable whenNotPaused returns (uint16[] memory) {\n        require(microAddons[addonID].purchasable, \"Selected microaddon does not exist or is not purchasable.\");\n        require(availableECO(msg.sender) > microAddons[addonID].price, \"Not enough available Ecobucks!\");\n        require(_exists(tokenID), \"Selected Token does not exist\");\n\n        // Take money from account\n        takeEco(msg.sender, microAddons[addonID].price);\n\n        allotments[tokenID].addons.push(addonID); // Add addonID to token array\n\n        return allotments[tokenID].addons;\n    }\n\n    /** @dev Function to withdraw all ETH from contract to balance\n    */\n    function withdrawAll() external payable onlyOwner {\n        uint bal = address(this).balance;\n        address(owner).transfer(bal);\n    }\n\n    /** @dev Function to get a list of owned allotment's IDs\n    * @return A uint array which contains IDs of all owned allotments\n    */\n    function ownedAllotments() external view returns(uint256[] memory) {\n        uint256 allotmentCount = balanceOf(msg.sender);\n        if (allotmentCount == 0) {\n            return new uint256[](0);\n        } else {\n            uint256[] memory result = new uint256[](allotmentCount);\n            uint256 totalAllotments = allotments.length;\n            uint256 resultIndex = 0;\n            uint256 allotmentId = 0;\n            while (allotmentId < totalAllotments) {\n                if (ownerOf(allotmentId) == msg.sender) {\n                    result[resultIndex] = allotmentId;\n                    resultIndex = resultIndex.add(1);\n                }\n                allotmentId = allotmentId.add(1);\n            }\n            return result;\n        }\n    }\n\n    /** @dev Function to get a list of owned allotment's IDs\n    * @return A uint array which contains IDs of all owned allotments\n    */\n    function tokensOwnedByContract() external view returns(uint256[] memory) {\n        uint256 allotmentCount = balanceOf(address(this));\n        if (allotmentCount == 0) {\n            return new uint256[](0);\n        } else {\n            uint256[] memory result = new uint256[](allotmentCount);\n            uint256 totalAllotments = allotments.length;\n            uint256 resultIndex = 0;\n            uint256 allotmentId = 0;\n            while (allotmentId < totalAllotments) {\n                if (ownerOf(allotmentId) == address(this)) {\n                    result[resultIndex] = allotmentId;\n                    resultIndex = resultIndex.add(1);\n                }\n                allotmentId = allotmentId.add(1);\n            }\n            return result;\n        }\n    }\n\n    /** @dev Function to retrieve a specific allotment's details.\n    * @param id ID of the allotment who's details will be retrieved\n    * @return Array id and geopoints of an allotment with all addons.\n    */\n    function allotmentDetails(uint256 id) external view returns (uint256, uint256[2][] memory, uint16[] memory) {\n        return (id, allotments[id].geoMap, allotments[id].addons);\n    }\n\n    /** @dev Function to update _currentPrice\n    * @dev Throws if _currentPrice is zero\n    */\n    function setCurrentPrice(uint256 _currentPrice) public onlyOwner {\n        require(_currentPrice > 0); // This shouldn't ever throw, but sanitization of inputs is never a bad thing\n        currentPrice = _currentPrice;\n    }\n\n    /** @dev Function to update _ecoBucksAddress\n      * @dev Throws if _ecoBucksAddress is not a contract address\n      */\n    function setEcoBucksAddress(address _ecoBucksAddress) public onlyOwner {\n        require(isContract(_ecoBucksAddress)); // ecoBucksAddress is common denominator contract for all subcontracts\n        ecoBucksAddress = ERC20(_ecoBucksAddress);\n    }\n\n    /** @dev Function to verifie user has enough ecobucks to spend\n    */\n    function availableECO(address user) internal view returns (uint256) {\n        return ecoBucksAddress.allowance(user, address(this));\n    }\n\n    /** @dev Function to take ecobucks from user and transfer to contract\n     */\n    function takeEco(address _from, uint256 _amount) internal {\n        require(availableECO(_from) > _amount); // Requre enough ecoBucks available\n        require(ecoBucksAddress.transferFrom(_from, address(this), _amount), \"Transfer of EcoBucks failed\");\n        emit EcoTransfer(_from, _amount);\n    }\n\n    /** @dev Function to create radnom numbers\n      * @return psuedoRandom nnumbers\n      */\n    function random() internal returns(uint) {\n        uint randomNum = uint(keccak256(abi.encodePacked(now, msg.sender, randomNonce))) % 100;\n        randomNonce++;\n        return randomNum;\n    }\n\n    /** @dev Function determine if input is contract\n      * @return bool if input is a contract\n      */\n    function isContract(address _addr) internal view returns (bool) {\n        uint32 size;\n        assembly {\n            size := extcodesize(_addr)\n        }\n        return (size > 0);\n    }\n}\n",
  "sourcePath": "/Users/loberwager/Documents/ethprj/EcoBucks/contracts/PanamaJungle.sol",
  "compiler": {
    "name": "solc",
    "version": "0.5.10+commit.5a6ea5b1.Emscripten.clang"
  },
  "schemaVersion": "3.0.9",
  "updatedAt": "2019-07-09T11:08:24.516Z",
  "devdoc": {
    "methods": {
      "allotmentDetails(uint256)": {
        "details": "Function to retrieve a specific allotment's details.",
        "params": {
          "id": "ID of the allotment who's details will be retrieved"
        },
        "return": "Array id and geopoints of an allotment with all addons."
      },
      "approve(address,uint256)": {
        "details": "Approves another address to transfer the given token ID The zero address indicates there is no approved address. There can only be one approved address per token at a given time. Can only be called by the token owner or an approved operator.",
        "params": {
          "to": "address to be approved for the given token ID",
          "tokenId": "uint256 ID of the token to be approved"
        }
      },
      "balanceOf(address)": {
        "details": "Gets the balance of the specified address.",
        "params": {
          "owner": "address to query the balance of"
        },
        "return": "uint256 representing the amount owned by the passed address"
      },
      "buyAllotments(uint256,address)": {
        "details": "Function to buy one or more allotments",
        "params": {
          "_tokensDesired": "number of tokens desired"
        }
      },
      "createAllotment(uint256[2][][])": {
        "details": "Function to group create allotments",
        "params": {
          "_allotments": "an array of arrays of points for creating the allotment bounds Each lat lng point has six decimal points, about 4 inches of precision. (precision is not accuracy, note https://gis.stackexchange.com/a/8674 )"
        },
        "return": "The new allotment's ID"
      },
      "createMicro(uint16,bool)": {
        "details": "Function to create a new type of microaddon",
        "params": {
          "_price": "uint of the cost (in ecoBucks) of the new microaddon",
          "_purchasable": "bool determining if the new microaddon can be purchased by users"
        },
        "return": "The new addon's ID"
      },
      "createTestAllotment()": {
        "details": "Function to create test allotments",
        "return": "The new allotment's ID"
      },
      "getApproved(uint256)": {
        "details": "Gets the approved address for a token ID, or zero if no address set Reverts if the token ID does not exist.",
        "params": {
          "tokenId": "uint256 ID of the token to query the approval of"
        },
        "return": "address currently approved for the given token ID"
      },
      "isApprovedForAll(address,address)": {
        "details": "Tells whether an operator is approved by a given owner.",
        "params": {
          "operator": "operator address which you want to query the approval of",
          "owner": "owner address which you want to query the approval of"
        },
        "return": "bool whether the given operator is approved by the given owner"
      },
      "ownedAllotments()": {
        "details": "Function to get a list of owned allotment's IDs",
        "return": "A uint array which contains IDs of all owned allotments"
      },
      "ownerOf(uint256)": {
        "details": "Gets the owner of the specified token ID.",
        "params": {
          "tokenId": "uint256 ID of the token to query the owner of"
        },
        "return": "address currently marked as the owner of the given token ID"
      },
      "pause()": {
        "details": "called by the owner to pause, triggers stopped state"
      },
      "purchaseMicro(uint256,uint16)": {
        "details": "Function to add vitrual microtransactions to an allotment",
        "params": {
          "addonID": "Desired name of the addon mapped to an id",
          "tokenID": "id of the token to add the microtransactions to"
        },
        "return": "All microtransactions on tokenID"
      },
      "renounceOwnership()": {
        "details": "Allows the current owner to relinquish control of the contract."
      },
      "safeTransferFrom(address,address,uint256)": {
        "details": "Safely transfers the ownership of a given token ID to another address If the target address is a contract, it must implement `onERC721Received`, which is called upon a safe transfer, and return the magic value `bytes4(keccak256(\"onERC721Received(address,address,uint256,bytes)\"))`; otherwise, the transfer is reverted. Requires the msg.sender to be the owner, approved, or operator",
        "params": {
          "from": "current owner of the token",
          "to": "address to receive the ownership of the given token ID",
          "tokenId": "uint256 ID of the token to be transferred"
        }
      },
      "safeTransferFrom(address,address,uint256,bytes)": {
        "details": "Safely transfers the ownership of a given token ID to another address If the target address is a contract, it must implement `onERC721Received`, which is called upon a safe transfer, and return the magic value `bytes4(keccak256(\"onERC721Received(address,address,uint256,bytes)\"))`; otherwise, the transfer is reverted. Requires the msg.sender to be the owner, approved, or operator",
        "params": {
          "_data": "bytes data to send along with a safe transfer check",
          "from": "current owner of the token",
          "to": "address to receive the ownership of the given token ID",
          "tokenId": "uint256 ID of the token to be transferred"
        }
      },
      "setApprovalForAll(address,bool)": {
        "details": "Sets or unsets the approval of a given operator An operator is allowed to transfer all tokens of the sender on their behalf.",
        "params": {
          "approved": "representing the status of the approval to be set",
          "to": "operator address to set the approval"
        }
      },
      "setCurrentPrice(uint256)": {
        "details": "Function to update _currentPriceThrows if _currentPrice is zero"
      },
      "setEcoBucksAddress(address)": {
        "details": "Function to update _ecoBucksAddressThrows if _ecoBucksAddress is not a contract address"
      },
      "supportsInterface(bytes4)": {
        "details": "See `IERC165.supportsInterface`.     * Time complexity O(1), guaranteed to always use less than 30 000 gas."
      },
      "tokensOwnedByContract()": {
        "details": "Function to get a list of owned allotment's IDs",
        "return": "A uint array which contains IDs of all owned allotments"
      },
      "transferFrom(address,address,uint256)": {
        "details": "Transfers the ownership of a given token ID to another address. Usage of this method is discouraged, use `safeTransferFrom` whenever possible. Requires the msg.sender to be the owner, approved, or operator.",
        "params": {
          "from": "current owner of the token",
          "to": "address to receive the ownership of the given token ID",
          "tokenId": "uint256 ID of the token to be transferred"
        }
      },
      "transferOwnership(address)": {
        "details": "Allows the current owner to transfer control of the contract to a newOwner.",
        "params": {
          "_newOwner": "The address to transfer ownership to."
        }
      },
      "unpause()": {
        "details": "called by the owner to unpause, returns to normal state"
      },
      "withdrawAll()": {
        "details": "Function to withdraw all ETH from contract to balance"
      }
    }
  },
  "userdoc": {
    "methods": {}
  }
}